:10000000201100105D020000990200005909000053
:1000100000000000000000000000000000000000E0
:100020000000000000000000000000009D02000031
:1000300000000000000000009F020000A10200007C
:10004000A5020000A7020000A9020000AB02000008
:10005000AD020000AF020000B1020000B3020000D8
:10006000B5020000B7020000B9020000BB020000A8
:10007000BD020000BF020000C1020000C302000078
:10008000C5020000C7020000C9020000CB02000048
:10009000CD020000CF020000D1020000D302000018
:0C00A000D5020000D7020000D9020000C9
:1000AC004FF040239B69C3F30003DBB20133044AD6
:1000BC0092FBF3F31A46034B1A6000BF704700BF64
:1000CC00006CDC0200000010094B0A4A1A604FF069
:1000DC00402347225A614FF04022137E6FF30003F6
:1000EC0013764FF0402300225A6100BF704700BFC7
:1000FC0000000010006CDC02354936480A1A02D0A8
:10010C00072291438D46344934480A1A06D00722F7
:10011C00914381F30988022282F3148830483149D3
:10012C00314A00F043F831483149324A00F03EF888
:10013C0031483249324A00F039F832483249334AB0
:10014C0000F034F832483349334A00F02FF8334882
:10015C003349344A00F02AF833483449344A00F021
:10016C0025F834483449002200F02BF83348344940
:10017C00002200F026F833483349091A082903DB1A
:10018C0000220260043001601F482049884205D0DB
:10019C000268043003B4904703BCF7E7002086469E
:1001AC00EC4600200021294A9047FEE7884207D000
:1001BC00521A05D0037801300B700131013AF9D194
:1001CC007047884202D002700130FAE77047000095
:1001DC002011001020100010201100102011001010
:1001EC00600A00000000001004000010DC02000097
:1001FC00DC020000500A0000600A00000000001041
:10020C0000000010500A0000500A0000540A0000C0
:10021C00500A0000500A0000500A0000540A000066
:10022C00540A0000600A0000640A00001C00001060
:10023C001C000010040000101C0000101C0000101A
:10024C001C0000101C0000101C100010E502000027
:10025C00094820F0070085460848804708480949A6
:10026C0001600948016841F470010160BFF34F8FD0
:10027C00BFF36F8FFFF740BF00000410D5000000E4
:10028C0008ED00E00000000088ED00E0FEE7FEE76E
:10029C00FEE7FEE7FEE7FEE7FEE7FEE7FEE7FEE72A
:1002AC00FEE7FEE7FEE7FEE7FEE7FEE7FEE7FEE71A
:1002BC00FEE7FEE7FEE7FEE7FEE7FEE7FEE7FEE70A
:1002CC00FEE7FEE7FEE7FEE7FEE7FEE7FEE700BF20
:1002DC0000BE00BF7047000000B585B0054A01ABF9
:1002EC0007CA83E8070000F007F800BF05B05DF807
:1002FC0004FB00BF540A000008B500F03FF900F001
:10030C00ABF900F01BFB012000F0B8F9012000F064
:10031C0007F800F0CBF9012000F09CFA30BFFAE7A7
:10032C0082B00190019B03F00303002B05D0044B1A
:10033C001A680349019B13430B6000BF02B070475E
:10034C000C40004000B587B001900091019B1A0150
:10035C00104B1344059300F0B9F803460393059B27
:10036C001B680493009B03F00823DB43049A13409F
:10037C000493009B03F00113049A13430493059B0D
:10038C00049A1A60039B184600F0A6F800BF07B049
:10039C005DF804FB0C80004000B585B00190009125
:1003AC00019B1A010B4B1344039300F08FF8034687
:1003BC000293039B1A68009B03F008231A43039BC8
:1003CC001A60029B184600F087F800BF05B05DF874
:1003DC0004FB00BF0C80004000B58DB0039002916F
:1003EC0001920093039B1A012F4B13440893039B18
:1003FC001A012E4B13440793039B1A012C4B1344E5
:10040C00069300F063F803460593089B1B680B9357
:10041C00029B13F5803F02D10B9B1B0C0B930B9B88
:10042C0003F4E0730B930B9B802B02D00B9BC02B24
:10043C0006D1019A009BD31A0A93019B099303E0FE
:10044C00019B0A9300230993029B4FF6FF72934280
:10045C0007D10A9B9AB2099B1B041A43079B1A608B
:10046C001AE0029B13F5803F07D10A9B9AB2099BB5
:10047C001B041A43069B1A600EE00A9B9AB2099B56
:10048C001B041A43079B1A600A9B1A0C099B1B0C32
:10049C001B041A43069B1A60059B184600F01CF8B7
:1004AC0000BF0DB05DF804FB0C80004004800040E0
:1004BC000880004000B583B00190034B0198984729
:1004CC0000BF03B05DF804FB9D000008EFF3108043
:1004DC0072B6704700BF184680F31088704700BF93
:1004EC0084B001901A4B1B680393039B03F0010328
:1004FC00002B14BF01230023DAB2019B1A70039B5B
:10050C0003F00203002B14BF01230023DAB2019B7A
:10051C001A72039B03F00403002B14BF0123002366
:10052C00DAB2019B1A740B4B1A68019BDA600A4B06
:10053C001A68019B5B681A43019B5A60074B1A6847
:10054C00019B5B691A43019B5A6100BF04B0704761
:10055C00CC010240C4010240C0010240C80102406B
:10056C00054B1B6803F0F003202B0CBF0123002369
:10057C00DBB21846704700BF0C00024008B500F013
:10058C000FF800BF054B1B6803F00303032BF9D1D5
:10059C004220FFF78FFF00BF08BD00BF04100240D0
:1005AC00104B1B6803F00203002B05D00D4B1B688E
:1005BC0003F00103002B13D10B4B1B680A4A43F0C9
:1005CC0002031360084B1B68074A43F001031360D6
:1005DC0000BF044B1B6803F00303032BF9D17047D6
:1005EC0000BF7047041002400010024008B5174BC2
:1005FC001B6803F00203002B05D1144B1B6803F09E
:10060C000103002B20D0FFF7ABFF0346002B0BD0D0
:10061C000F4B1B68B3F5007F06D10E4B1B680D4AC0
:10062C0003F0050313600BE00A4B1B68094A23F027
:10063C0002031360074B1B68064A23F00103136087
:10064C000A20FFF737FF00E000BF08BD041002408E
:10065C000810024000100240064B1B68054A43F08C
:10066C0006031360044B1B68034A23F00403136056
:10067C0000BF7047181002400010024082B0019079
:10068C00019B002B06D0084B1B68074A43F08003E4
:10069C00136005E0044B1B68034A23F080031360CE
:1006AC0000BF02B0704700BF0C400040034B1B68FA
:1006BC00024A43F01003136000BF704750400040E3
:1006CC0082B0224B1B6803F0F003202B01D10223D4
:1006DC0000E000231E4A13601E4B1B68013B032BDA
:1006EC0001D8042300E000231A46194B1B6813435E
:1006FC00174A1360184B1B680193019B03F003030B
:10070C00002B01D0012200E00022114B1B68134387
:10071C000F4A1360114B1B680193019A40F2FF536F
:10072C001340002B01D0002200E00822084B1B686C
:10073C001343074A1360064B1B680F2B0CBF012396
:10074C000023DBB2184602B0704700BF0C00024019
:10075C0018000010040000100010024008100240A5
:10076C0000B58BB003900291019200238DF81F30DD
:10077C00FFF7ACFE03460493334B1B689B0803F056
:10078C000F030693304B1B685B0B03F00F030593B1
:10079C00019B03F00203002B09D02C4B1B6809931F
:1007AC002B4B1B68089301238DF81F300BE0019B2A
:1007BC0003F00103002B06D0039B0993029B0893C3
:1007CC0001238DF81F309DF81F30002B1FD0019B8B
:1007DC0003F01003002B0AD01B4B1B6823F03C02C8
:1007EC00099B9B0003F03C03174913430B60019BCF
:1007FC0003F02003002B0AD0134B1B6823F4F032B8
:10080C00089B5B0303F4F0330F4913430B60019B0C
:10081C0003F00403002B0FD0019B03F01003002BFB
:10082C0002D00A4A069B1360019B03F02003002BA5
:10083C0002D0074A059B1360049B1846FFF74CFE39
:10084C0000BF0BB05DF804FB680002401000001004
:10085C001400001000B587B003468DF80730FFF781
:10086C0035FE05909DF80730002B4FD02E4B1B68A2
:10087C0003F00103002B49D12C4B1B682B4A43F08E
:10088C0004031360FFF71CFF03468DF813309DF82B
:10089C001330002B13D0264B1B68013B0393039B97
:1008AC004FF0FF311846FFF777FD039800234FF008
:1008BC0001124FF0FF31FFF78FFDFFF797FE30BFAE
:1008CC009DF81330002B1DD0312207210720FFF794
:1008DC0047FF1C20FFF7EEFDFFF762FE144B1B6871
:1008EC00013B0393134B00221A70134B00221A6026
:1008FC004C20FFF7DFFD039B4FF0FF311846FFF74D
:10090C0021FD0AE00B4B01221A7006E0074B1B6815
:10091C00064A23F00403136030BF0598FFF7DCFD93
:10092C0000BF07B05DF804FB5002024010ED00E080
:10093C00040000100C00001008000010024B3722BD
:10094C001A6000BF704700BF08C0004080B5684601
:10095C00083000F009F801BD00BF184680004018AF
:10096C000068704700BF184600B597B0019003AB04
:10097C0000221A605A609A60DA601A615A61002388
:10098C001593159B13932D4B1B681393139BDBB281
:10099C008DF85030139B1B0ADBB28DF85130139B32
:1009AC001B0C9BB2ADF85230254B1B6812939DF873
:1009BC005130DBB203F00203002B05D00199062065
:1009CC00FFF7CCFF034601E04FF0FF331193019981
:1009DC000020FFF7C3FF0346099301990120FFF79D
:1009EC00BDFF03460A9301990220FFF7B7FF0346A8
:1009FC000B9301990320FFF7B1FF03460C93019968
:100A0C000420FFF7ABFF03460D9301990520FFF778
:100A1C00A5FF03460E9301990620FFF79FFF03469F
:100A2C000F9301990720FFF799FF0346109303AB2F
:100A3C001846FFF755FD00231593FEE728ED00E05F
:040A4C0038ED00E0A1
:040A5000AD000000F5
:0C0A5400DD020000D500000005030000DA
:040A6000006CDC0248
:040000030000025D9A
:00000001FF
