:1000000028120020B50200004D0200004F0200003F
:1000100051020000530200005502000000000000E1
:100020000000000000000000000000005702000077
:1000300059020000000000005B0200005D020000A9
:100040005F02000061020000630200006502000020
:100050006702000069020000890500006D020000CF
:100060006F020000710200007302000075020000C0
:1000700077020000790200007B0200007D02000090
:100080007F02000081020000830200008502000060
:1000900087020000890200008B0200008D02000030
:1000A0008F02000091020000930200009502000000
:1000B000970200009902000000000000000000000C
:1000C0009B0200009D0200009F020000A1020000B0
:1000D000A3020000A5020000A7020000A902000080
:1000E000AB020000AD020000AF020000B102000050
:0800F00000000000B302000053
:1000F800344935480A1A02D0072291438D463349BC
:1001080033480A1A06D00722914381F3098802224C
:1001180082F314882F483049304A00F042F83048BA
:100128003049314A00F03DF830483149314A00F051
:1001380038F831483149324A00F033F83148324909
:10014800324A00F02EF832483249334A00F029F892
:1001580032483349334A00F024F8334833490022FF
:1001680000F02AF832483349002200F025F83248D6
:100178003249091A082902DB0022026041601F483F
:100188001F49884205D00268043003B4904703BC75
:10019800F7E700208646EC4600200021284A9047D1
:1001A800FEE7884207D0521A05D0037801300B7059
:1001B8000131013AF9D17047884202D0027001300A
:1001C800FAE7704728120020280A00202812002089
:1001D80028120020F8400000000000200400002041
:1001E800C8020000C80200000C3D0000F8400000F2
:1001F80000000020000000200C3D00000C3D000025
:100208000C3D00000C3D00000C3D00000C3D0000C2
:100218000C3D00000C3D0000F8400000FC400000D0
:1002280024020020240200200400002024020020D0
:10023800240200202402002024020020240A002096
:10024800052B0000FEE7FEE7FEE7FEE7FEE7FEE718
:10025800FEE7FEE7FEE7FEE7FEE7FEE7FEE7FEE76E
:10026800FEE7FEE7FEE7FEE7FEE7FEE7FEE7FEE75E
:10027800FEE7FEE7FEE7FEE7FEE7FEE7FEE7FEE74E
:10028800FEE7FEE7FEE7FEE7FEE7FEE7FEE7FEE73E
:10029800FEE7FEE7FEE7FEE7FEE7FEE7FEE7FEE72E
:1002A800FEE7FEE7FEE7FEE7FEE7FEE703488546D2
:1002B80000F0CAFDFFF71CBF7047000000000420D3
:1002C80000B585B00190019B002B0AD0074B43F085
:1002D80001030393019B9B010293039B0298984798
:1002E80000E000BF05B05DF804FB00BF103D000052
:1002F80000B583B00190019B002B0AD04FF47A70AF
:10030800FFF7DEFF019B013B0193019B002BF5D119
:1003180000E000BF03B05DF804FB00B583B00190B6
:100328000198FFF7E5FF00BF03B05DF804FB00B5D7
:1003380083B001900198FFF7C3FF00BF03B05DF8D9
:1003480004FB82B00190019A13465B0013441B0220
:1003580003F1A043184602B0704710B586B002AC4E
:1003680084E8030011461A460B468DF807301346F9
:100378008DF80630029B1846FFF7E3FF05909DF8BD
:1003880007209DF806305B001A439DF820309B003B
:100398001A439DF824301B0242EA03019DF82830D5
:1003A8001B04039A1943059B02F5E07243F82210D7
:1003B80000BF06B010BD00B587B004AB83E80300EA
:1003C80000230293002301930023009301230022BA
:1003D80004A903C9FFF7C1FF00BF07B05DF804FB1C
:1003E80000B587B004AB83E8030000230293002321
:1003F8000193002300930123012204A903C9FFF7F5
:10040800ACFF00BF07B05DF804FB00B587B004ABD4
:1004180083E803000023029306230193002300933B
:100428000123012204A903C9FFF797FF00BF07B002
:100438005DF804FB00B587B004AB83E80300002334
:10044800029306230193032300930123012204A9A5
:1004580003C9FFF782FF00BF07B05DF804FB00B5D2
:1004680087B004AB83E803000023029304230193BD
:10047800012300930123012204A903C9FFF76DFF9B
:1004880000BF07B05DF804FB00B587B004AB83E894
:100498000300002302930023019300230093002309
:1004A800002204A903C9FFF758FF00BF07B05DF891
:1004B80004FB00B587B004AB83E803000023029374
:1004C80000230193032300930023002204A903C9F6
:1004D800FFF743FF00BF07B05DF804FB00B587B026
:1004E80004AB83E803000023029300230193012354
:1004F80000930023002204A903C9FFF72EFF00BFC1
:1005080007B05DF804FB00B587B002AB83E80300D1
:1005180013468DF80730029B1846FFF712FF059027
:100528009DF80730002B06D0039B01229A40059BBB
:10053800C3F8082505E0039B01229A40059BC3F8F0
:100548000C2500BF07B05DF804FB00B585B06B460D
:1005580083E80300009B1846FFF7F3FE0390039B14
:10056800D3F81025019B22FA03F303F00103002BB3
:1005780014BF01230023DBB2184605B05DF804FB65
:1005880000B585B00023039352E03C4A039B4033F7
:1005980052F82330002B48D0384A039B40330021BF
:1005A80042F82310364B1B68039A9A423DD2039AAD
:1005B8001346DB009B1A9B00324A13440193019BAC
:1005C8009B695A1C019B9A61019B1B7D8DF8033026
:1005D800019B93E80300FFF7B8FF03468DF802304C
:1005E800019B9DF802201A759DF802209DF80330A2
:1005F8009A4212D1019BDB68019A10699DF802208A
:10060800002A14BF01220022D2B282F00102D2B223
:1006180002F00102D2B211469847019BDB68019AA9
:1006280012699DF8021010469847039B0133039303
:10063800039B072BA9D9114BD3F87C31002B18D079
:100648000E4B0022C3F87C210F4B1B78DBB2002B2A
:100658000FD00E4B0293029B9B695A1C029B9A6116
:10066800029BDB68029A1069029A127DD2B2114687
:10067800984700BF05B05DF804FB00BF006000406C
:10068800E400002004000020E8000020EC00002026
:1006980000B585B00190019B043393E80300FFF790
:1006A800C9FE019B0122043393E80300FFF72BFFE7
:1006B800019B0C3393E80300FFF7FBFE0420FFF7D0
:1006C80036FE0023039316E0019B0022043393E8CF
:1006D8000300FFF718FF0420FFF729FE019B012202
:1006E800043393E80300FFF70EFF0420FFF71FFE13
:1006F800039B01330393039B082BE5DD019B0C331C
:1007080093E80300FFF796FE019B00220C3393E861
:100718000300FFF7F8FE0420FFF709FE019B012202
:100728000C3393E80300FFF7EEFE0420FFF7FFFD0C
:10073800019B043393E80300FFF73DFE019B0C3354
:1007480093E80300FFF737FE00BF05B05DF804FB30
:1007580000B587B00390029101920093002305939E
:1007680011E0059A13465B001344DB001A46039B0D
:1007780013440493049800F05DF80498FFF788FF89
:10078800059B01330593059A029B9A42E9D300BF62
:1007980000BF07B05DF804FB00B585B00190019873
:1007A80000F06AF80346002B40D1019B043393E81C
:1007B8000300FFF73FFE019B0122043393E8030087
:1007C800FFF7A1FE019B0C3393E80300FFF732FE0D
:1007D800019B01220C3393E80300FFF794FE019B71
:1007E8001B680393019B5B685A01019B9B6803F09C
:1007F8001F031A43039BC3F80825019BDB685A01B2
:10080800019B1B6903F01F031A43039BC3F80C25C4
:10081800039B4FF0CC72C3F82425039B0022C3F836
:100828000022039B0622C3F8002500E000BF05B0A4
:100838005DF804FB00B585B00190019800F01CF844
:10084800034683F00103DBB2002B11D1019B1B6827
:100858000393039B0022C3F80025039B4FF0FF324C
:10086800C3F80825039B4FF0FF32C3F80C2500E0BE
:1008780000BF05B05DF804FB84B00190019B1B68C4
:10088800039306230293039BD3F80025029B13408E
:10089800029A9A420CBF01230023DBB2184604B027
:1008A800704786B001900091019B1B681B680493F8
:1008B800019B5A68049BC3F88825049B0022C3F84F
:1008C8002421049B0022C3F80421049B0722C3F8B7
:1008D800C4240023059387E0009B5B68013B059ACD
:1008E8009A420CBF012300238DF80F30049B00228D
:1008F800C3F84821009B1968059A13465B00134406
:100908009B000B440293029B1B78012B1AD1029B7C
:100918009A68049BC3F84825029B5B681A46049BA7
:10092800C3F844259DF80F30002B02D04FF4007215
:1009380001E04FF48072049BC3F80022049B01225B
:100948009A6019E0029B9A68049BC3F83825029BB9
:100958005B681A46049BC3F834259DF80F30002BBA
:1009680002D04FF4805201E04FF40062049BC3F8B8
:100978000022049B01221A60059B002B02D0049BD5
:1009880001221A629DF80F30002B0BD000BF049B88
:10099800D3F80431002B10D1049BD3F82431002B59
:1009A800F5D00AE000BF049BD3F84831002B04D1EE
:1009B800049BD3F82431002BF5D0049BD3F82431C1
:1009C800002B0ED0049BD3F80431002B13D1049BC9
:1009D80001225A6100BF049BD3F80431002BFAD0DE
:1009E80009E0059B01330593009B5B68059A9A42D1
:1009F800FFF472AF00E000BF049BD3F82431002B52
:100A08000CBF01230023DBB2184606B0704782B042
:100A180001900123184602B0704782B00190019AF4
:100A280013465B0013441B0203F1A043184602B0AF
:100A3800704710B586B002AC84E8030011461A4628
:100A48000B468DF8073013468DF80630029B184682
:100A5800FFF7E3FF05909DF807209DF806305B003F
:100A68001A439DF820309B001A439DF824301B023E
:100A780042EA03019DF828301B04039A1943059B99
:100A880002F5E07243F8221000BF06B010BD00B5B1
:100A980087B004AB83E8030000230293002301938B
:100AA800002300930123012204A903C9FFF7C1FF12
:100AB80000BF07B05DF804FB00B589B00390029150
:100AC800019200930023079318E0079A13465B00EE
:100AD80013449B001A46019B13440493049B04335C
:100AE80093E80300FFF77CFC049B0122043393E89E
:100AF8000300FFF708FD079B01330793079A009B44
:100B08009A42E2D3002306932EE0069A1346DB00AE
:100B180013449B001A46039B13440593059B043317
:100B280093E80300FFF7B3FF059B0122043393E822
:100B38000300FFF7E8FC059B0C3393E80300FFF77D
:100B4800A6FF059B01220C3393E80300FFF7DBFCAB
:100B5800059B143393E80300FFF7ABFC059800F0FE
:100B68006DF8069B01330693069A029B9A42CCD3F2
:100B780000BF00BF09B05DF804FB000000B585B0F8
:100B88000190019800F099F80346002B4ED1019B83
:100B98001B680393019BDB69264A934208D0264AC7
:100BA80093420BD0039B4FF00042C3F824250BE07F
:100BB800039B4FF02062C3F8242505E0039B4FF008
:100BC800A052C3F8242500BF039B0622C3F854256E
:100BD800019B5B685A01019B9B6803F01F031A4342
:100BE800039BC3F80825019BDB685A01019B1B691D
:100BF80003F01F031A43039BC3F80C25019B5B6991
:100C08005A01019B9B6903F01F031A43039BC3F816
:100C18001025039B0122C3F85025039B0122C3F82A
:100C28004025039B0722C3F8002500E000BF05B05C
:100C38005DF804FB0024F4000048E80100B585B025
:100C48000190019800F039F8034683F00103DBB204
:100C5800002B2ED1019B1B680393039B4022C3F8F2
:100C68000823039B0022C3F84C21039B0022C3F8EE
:100C78000421039B0022C3F81021039B0022C3F820
:100C88002021039B0022C3F81821039B0022C3F8EC
:100C98000025039B4FF0FF32C3F80825039B4FF054
:100CA800FF32C3F80C25039B4FF0FF32C3F8102521
:100CB80000E000BF05B05DF804FB84B00190019B23
:100CC8001B68039307230293039BD3F80025029B19
:100CD8001340029A9A420CBF01230023DBB2184644
:100CE80004B0704700B583B00190019B0022043323
:100CF80093E80300FFF707FC00BF03B05DF804FBAF
:100D080000B583B00190019B0122043393E80300EE
:100D1800FFF7F9FB00BF03B05DF804FB00B583B033
:100D28000190019B043393E80300FFF70EFC034690
:100D3800002B14BF01230023DBB283F00103DBB2D5
:100D480003F00103DBB2184603B05DF804FB8AB078
:100D58000390029101920093039B1B680793029AE8
:100D6800079BC3F84425009A079BC3F83425019BC9
:100D780009930A9B089326E0099BFF2B28BFFF23B2
:100D88000693079B069AC3F84825089BFF2B28BFA4
:100D9800FF230593079B059AC3F83825079B002274
:100DA800C3F81821079B01221A6100BF079BD3F8DB
:100DB8001831002BFAD0099A069BD31A0993089A7E
:100DC800059BD31A0893099B002BD5D1089B002BB0
:100DD800D2D100BF00BF0AB0704700B587B00390FA
:100DE80002910023059315E0029B1A68059B1B01DD
:100DF80013440493049B1968049B5A68049B9868DD
:100E0800049BDB68009303460398FFF7A0FF059B4C
:100E180001330593029B5B68059A9A42E4D300BFAD
:100E280000BF07B05DF804FB82B0019000BF02B0BC
:100E380070470000024B034A1A6000BF704700BFAA
:100E4800000000200090D00308B500F0EDF803463C
:100E5800002B0ED04FF080430022C3F80C214FF036
:100E680080430022C3F810214FF080430022C3F8CA
:100E7800382500F0F7F80346002B76D04FF0805362
:100E8800614AD3F80434C2F820354FF080535E4AE3
:100E9800D3F80834C2F824354FF080535A4AD3F8AF
:100EA8000C34C2F828354FF08053574AD3F8103421
:100EB800C2F82C354FF08053534AD3F81434C2F893
:100EC80030354FF08053504AD3F81834C2F83435CF
:100ED8004FF080534C4AD3F81C34C2F840354FF0D9
:100EE8008053494AD3F82034C2F844354FF0805330
:100EF800454AD3F82434C2F848354FF08053424A63
:100F0800D3F82834C2F84C354FF080533E4AD3F812
:100F18002C34C2F850354FF080533B4AD3F8303464
:100F2800C2F854354FF08053374AD3F83434C2F8F6
:100F380060354FF08053344AD3F83834C2F86435FA
:100F48004FF08053304AD3F83C34C2F868354FF03C
:100F580080532D4AD3F84034C2F86C354FF0805393
:100F6800294AD3F84434C2F8703500F099F803469A
:100F7800002B02D0254B264A1A6000F0A3F803463E
:100F8800002B03D0234BFB22C3F8182500F0ACF844
:100F98000346002B0AD0204B1B6823F00F021F4B7F
:100FA8001B6803F00F031C4913430B6000F0AEF8F5
:100FB8000346002B03D01A4B4FF400721A6000F05E
:100FC800B7F80346002B0DD04FF08043D3F8003418
:100FD80003F00103002B05D04FF080436FF00102AE
:100FE800C3F800240F4BD3F888300E4A43F470033B
:100FF800C2F88830BFF34F8F00BFBFF36F8F00BFB9
:10100800FFF718FF00BF08BD00C000408C56004025
:101018004881030000F00040E40E00405802001030
:101028004096024000ED00E00C4B1B68082B11D1E4
:101038000B4B1B68002B01D101230CE0084B1B68EC
:10104800012B01D1012306E0054B1B68022B01D1BE
:10105800012300E001231846704700BF300100104B
:10106800340100100C4B1B68082B11D10B4B1B686B
:10107800002B01D101230CE0084B1B68012B01D187
:10108800012306E0054B1B68022B01D1012300E078
:1010980001231846704700BF3001001034010010CA
:1010A800064B1B68082B05D1054B1B68002B01D18B
:1010B800012300E000231846704700BF30010010EC
:1010C80034010010064B1B68082B05D1054B1B6823
:1010D800002B01D1012300E000231846704700BF10
:1010E8003001001034010010064B1B68082B05D195
:1010F800054B1B68002B01D1012300E00023184693
:10110800704700BF3001001034010010064B1B6807
:10111800082B05D1054B1B68002B01D1012300E0EA
:1011280000231846704700BF30010010340100103A
:101138000C4B1B68082B11D10B4B1B68002B01D1E2
:1011480001230CE0084B1B68012B01D1012306E0A9
:10115800054B1B68022B01D1012300E0012318462F
:10116800704700BF300100103401001000B585B091
:1011780003900B4601928DF80B309DF80B30019AC5
:101188001946039801F0CEF80346184605B05DF8F5
:1011980004FB00B583B001900B468DF8033013466D
:1011A8008DF802309DF802209DF803301946019809
:1011B80001F0F3F80346184603B05DF804FB00009D
:1011C80000B585B001908DED000ADDED007AB2EE34
:1011D800047A67EE877A9FED1D7A77EE877AFDEEBF
:1011E800E77A17EE903A0393039B112B01DC122345
:1011F8000393039B212B01DD2123039300238DF807
:101208000830039BDBB2123BDBB203F00F03DAB208
:101218009DF8083062F344038DF808309DF80830D3
:1012280043F060038DF808309DF8083043F08003E0
:101238008DF808309DF808301A4606210198FFF706
:10124800A8FF0346184605B05DF804FBCDCC4C3D1D
:1012580000B587B001900091009B4FF000021A6022
:1012680003AB1A4605210198FFF780FF034683F078
:101278000103DBB2002B01D00023A6E09DF80C305F
:10128800C3F34603DBB207EE903AB8EEE77ADFED38
:10129800516AC7EE267A9FED507A77EE877ACDEDC0
:1012A800047A00238DF808309DF8083043F0800355
:1012B8008DF808309DF808301A460A210198FFF782
:1012C80068FF034683F00103DBB2002B01D0002343
:1012D8007BE00220FFF721F800238DF8083002ABED
:1012E8001A460A210198FFF741FF034683F00103DC
:1012F800DBB2002B01D0002367E09DF80830C3F370
:101308004113DBB207EE903AF8EEE77A9FED337AB5
:1013180067EE877A9FED327A77EE877ACDED057A98
:101328009DF80830C3F38203DBB2013B062B3ED89D
:1013380001A252F823F000BF5D1300006F130000F4
:1013480081130000B7130000B713000093130000C7
:10135800A5130000DDED057A9FED227A77EE877AF6
:10136800CDED057A27E0DDED057A9FED1F7A77EE62
:10137800877ACDED057A1EE0DDED057A9FED1B7AC3
:1013880077EE877ACDED057A15E0DDED057A9FEDEC
:10139800187A77EE877ACDED057A0CE0DDED057ADF
:1013A8009FED0E7A77EE877ACDED057A03E04FF060
:1013B8000003059300BF9DED047ADDED057A67EE25
:1013C800277A009BC3ED007A0123184607B05DF821
:1013D80004FB00BF0000C84266666640CDCCCC3D29
:1013E8009A99193F0AD7A33C0AD7233D8FC2753D66
:1013F8000AD7A33D00B587B003900291AB230593AC
:101408000398FFF76FFC039B18680DF1130305A9F8
:1014180001220092042200F0FDFF039B1B6818467E
:10142800FFF702FD0298FEF782FF0398FFF768FCBA
:1014380000BF07B05DF804FB00B583B001900198C8
:1014480000F035F8B921019801F0B4F800BF03B0F5
:101458005DF804FB00B589B00390029190230793CF
:1014680006AB07A9022200920422039801F067F84C
:101478009DF81820029B1A709DF81920029B5A703B
:101488009F238DF8143004AB05A903220092012292
:10149800039801F054F89DF81120029B9A709DF86A
:1014A8001220029BDA7000BF09B05DF804FB00B59A
:1014B80085B001900521019801F066F803468DF882
:1014C8000F309DF80F3003F00103002BF2D100BF5D
:1014D80000BF05B05DF804FB00B583B0019001982A
:1014E800FFF7E5FF0621019801F064F800BF03B09B
:1014F8005DF804FB00B587B001900091009B03F0F4
:101508007F43002B1CD021238DF81030009B1B0E2D
:10151800DBB28DF81130009B1B0CDBB28DF812305A
:10152800009B1B0ADBB28DF81330009BDBB28DF8F1
:10153800143004AB05221946019801F06BF816E047
:1015480020238DF80C30009B1B0CDBB28DF80D307E
:10155800009B1B0ADBB28DF80E30009BDBB28DF8C6
:101568000F3003AB04221946019801F053F800BF6D
:1015780007B05DF804FB00B583B001900198FFF750
:1015880096FF6021019801F015F800BF03B05DF8DF
:1015980004FB00B593B00390029101920093039865
:1015A800FFF785FF029B03F07F43002B18D012231F
:1015B8008DF83C30029B1B0EDBB28DF83D30029B50
:1015C8001B0CDBB28DF83E30029B1B0ADBB28DF898
:1015D8003F30029BDBB28DF840300523119312E0B7
:1015E80002238DF83C30029B1B0CDBB28DF83D309A
:1015F800029B1B0ADBB28DF83E30029BDBB28DF8F2
:101608003F30042311930FAB0793119B08930023DA
:10161800099300230A93019B0B93009B0C930023CF
:101628000D9300230E9307AB049302230593002325
:10163800069304AB1946039800F04BFF00BF13B0A4
:101648005DF804FB00B58BB00590049103920293FA
:101658000598FFF72CFF049B03F07F43002B21D054
:101668000C238DF82030049B1B0EDBB28DF8213043
:10167800049B1B0CDBB28DF82230049B1B0ADBB2E7
:101688008DF82330049BDBB28DF8243000238DF8CD
:10169800253008A9029B0093039B0622059800F0B9
:1016A8004EFF1BE00B238DF81830049B1B0CDBB29C
:1016B8008DF81930049B1B0ADBB28DF81A30049B95
:1016C800DBB28DF81B3000238DF81C3006A9029B75
:1016D8000093039B0522059800F031FF00BF0BB073
:1016E8005DF804FB00B583B001900B468DF803301C
:1016F8009DF8033063F07F03DBB21946019800F0D0
:1017080043FF0346184603B05DF804FB00B583B0F9
:1017180001900B468DF8033013468DF802309DF882
:1017280002209DF803301946019800F056FF00BFCB
:1017380003B05DF804FB00B585B001900B468DF849
:1017480003301346ADF800309DF803308DF80C30A7
:10175800BDF80030DBB28DF80D30BDF800301B0A43
:101768009BB2DBB28DF80E3003AB03221946019809
:1017780000F050FF00BF05B05DF804FB84B0019095
:101788000091019A009B13441B788DF80F30009B41
:101798000133019A13441B788DF80E309DF80E30F2
:1017A8001B021AB29DF80F301BB213431BB29BB237
:1017B800184604B07047000082B0002301930C4B18
:1017C8001B78002B02D0019B03330193094B1B7834
:1017D800002B02D0019B03330193074B1B78002B8E
:1017E80002D0019B03330193019B184602B0704756
:1017F800090100200A0100200B01002000B59BB060
:1018080003900023ADF85A300023ADF85830002378
:10181800ADF8563000231993A3E0564A10AB92E86E
:10182800030083E8030010AB93E80300FEF78DFE86
:1018380003468DF855300398FFF754FABA238DF80C
:101848003F30039B18680EAB0DF13F010422009254
:10185800012200F0DFFD039B1B681846FFF7E4FA3E
:101868000EAB00211846FFF789FF0346ADF852304A
:10187800BDF85230C3F30B03ADF862300EAB022152
:101888001846FFF77BFF0346C3F30903ADF8503052
:101898009DF839308DF84F309DF84F3003F0100324
:1018A800002B04D00398FFF72BFA00235EE0199B66
:1018B800002B04DD304B1B6801332F4A13609DF861
:1018C8004F3003F04003002B08D02C4B1B6801332A
:1018D8002A4A13604FF40063ADF86230BDF8523005
:1018E800ADF85A30BDF86230ADF85830BDF8503018
:1018F800ADF85630BDF85030002B2CD0FFF75CFF08
:101908001290BDF85030129AD31A129A13441793B2
:10191800BDF86230179A9A4202D9BDF8623017931F
:10192800039B1868179B5A0005AB194600F0B5FDD4
:10193800039B1B681846FFF777FA0398FFF7E0F94F
:10194800179B9BB2BDF86220D31AADF86230199B81
:101958000133199305E00398FFF7D2F9BDF8623017
:1019680004E0199B092B7FF758AF002318461BB0DA
:101978005DF804FB183D00000C0100201001002058
:1019880000B599B00390029101920398FFF736FFD2
:101998001490FFF711FF1390149A139BB2FBF3F303
:1019A8001793179A019B9A4201D9019B17930398A1
:1019B800FFF798F9039B1B68BE21184600F04FFDFE
:1019C800039B1B681846FFF72FFA00231693AFE016
:1019D80000231593039B1868139B5A0005AB1946FF
:1019E80000F05BFD039B1B681846FFF71DFA169B6A
:1019F8001B01029A1344129310220021129801F03D
:101A0800CFFE524B1B78002B23D005AB15991846F7
:101A1800FFF7B4FE03461AB2129BDA80159B023315
:101A2800159305AB15991846FFF7A8FE03461AB299
:101A3800129B1A81159B0233159305AB159918460D
:101A4800FFF79CFE03461AB2129B5A81159B02337C
:101A580015933F4B1B78002B23D005AB15991846DF
:101A6800FFF78CFE03461AB2129B1A80159B0233AD
:101A7800159305AB15991846FFF780FE03461AB271
:101A8800129B5A80159B0233159305AB159918467E
:101A9800FFF774FE03461AB2129B9A80159B023315
:101AA80015932C4B1B78002B3FD005AA159B13448C
:101AB8001B781193159B0133159305AA159B1344A5
:101AC8001B781093159B0133159305AA159B134496
:101AD8001B780F93159B0133159305AA159B134487
:101AE8001B780E93159B01331593109B1A04119BB9
:101AF8001B0213430E9A13430D93129B0D9ADA603F
:101B080005AA159B13441B780C93159B0133159359
:101B180005AA159B13441B780B93159B013315934A
:101B28000B9B1B020C9A13430A93169B01331693C3
:101B3800169B179A9A423FF64BAF0398FFF7E0F8C7
:101B4800179B184619B05DF804FB00BF0901002077
:101B58000A0100200B01002000B58BB00390039808
:101B6800FFF7C0F8BA238DF81A30039B186805AB45
:101B78000DF11A0104220092012200F04BFC039B94
:101B88001B681846FFF750F905AB00211846FFF708
:101B9800F5FD0346ADF81E30BDF81E30C3F30B0348
:101BA800ADF8263005AB02211846FFF7E7FD0346DE
:101BB800C3F30903ADF81C309DF815308DF81B30C0
:101BC8009DF81B3003F01003002B03D00398FFF798
:101BD80097F823E09DF81B3003F04003002B03D057
:101BE8004FF40063ADF82630002308930EE0039B02
:101BF8001B6804A90222184600F04FFC039B1B68CF
:101C08001846FFF711F9089B01330893BDF82630F1
:101C1800089A9A42EBDB0398FFF772F80BB05DF86D
:101C280004FB000000B587B0019000910F210198D6
:101C3800FFF758FD03461A46714B1A700422132108
:101C48000198FFF763FD742212210198FFF75EFDEA
:101C5800009BDA796B4B1A70009BDB780593009B2D
:101C6800DB7983F00103DBB2002B01D0002305935D
:101C7800009B1A7B644B1A70009B1B7A0493009B91
:101C88001B7B83F00103DBB2002B01D000230493FC
:101C9800059BDBB21B01DAB2009B5B799B00DBB2D0
:101CA8001343DAB2009B9B791343DBB21A46102127
:101CB8000198FFF72BFD009B1B79002B01D0102307
:101CC80000E000231A4615210198FFF71FFD009B2D
:101CD800DB79002B01D0E02300E000231A4618210D
:101CE8000198FFF713FD049BDBB21B01DAB2009BDE
:101CF8009B7A5B00DBB21343DBB21A4611210198D1
:101D0800FFF704FD009B5B7A002B02D06FF07F0287
:101D180000E00022009BDB7A1B015BB213435BB23D
:101D2800DBB21A4616210198FFF7F0FC009B5A7B9C
:101D3800364B1A70354B1B78002B01D0202300E05E
:101D480000231A4619210198FFF7E0FC2F4B1B7856
:101D5800002B01D0082300E000231A46092101982E
:101D6800FFF7D4FC294B1B78002B01D0284A00E050
:101D78000022009B1B881BB2C3F30A031BB2134348
:101D88001BB29BB21A4606210198FFF7D4FC009BB0
:101D98001B7B002B01D0082200E00022009BDB798E
:101DA8005BB213435BB2DBB21A4608210198FFF716
:101DB800ADFC00220A210198FFF7A8FCAA224221C3
:101DC8000198FFF7A3FCFFF7F7FC0390039B002B98
:101DD80008D0009B9B78DB005BB243F006035BB244
:101DE800DBB200E000231A460A210198FFF78EFCB7
:101DF8000198FFF7B1FE00BF07B05DF804FB00BF14
:101E0800080100200A010020090100200B01002020
:101E18000080FFFF00B587B001900091502200219B
:101E28006E4801F0BDFC00230593CCE0059BDB0068
:101E3800019A13440493059A13469B0013449B008C
:101E4800664A13440393049BD3ED017A9FED647AA9
:101E5800C7EE276A16EE900A01F059FA02460B46B9
:101E680043EC102B01F0D4FB53EC102B1046194611
:101E780001F026FA03460293029B202B4ADC029BC0
:101E8800002B40F38380029B013B1F2B7ED801A2CD
:101E980052F823F0251F0000351F0000951F000091
:101EA800451F0000951F0000951F0000951F0000AA
:101EB800551F0000951F0000951F0000951F00008A
:101EC800951F0000951F0000951F0000951F00003A
:101ED800651F0000951F0000951F0000951F00005A
:101EE800951F0000951F0000951F0000951F00001A
:101EF800951F0000951F0000951F0000951F00000A
:101F0800951F0000951F0000951F0000951F0000F9
:101F1800751F0000029B402B30D037E0039B4FF029
:101F28007E521A60039B00225A6037E0039B4FF0F1
:101F380080421A60039B01225A602FE0039B4FF0F6
:101F480081421A60039B02225A6027E0039B4FF0EC
:101F580082421A60039B03225A601FE0039B4FF0E2
:101F680083421A60039B04225A6017E0039B4FF0D8
:101F780084421A60039B05225A600FE0039B4FF0CE
:101F880085421A60039B06225A6007E0039B4FF0C4
:101F980086421A60039B07225A6000BF039B93ED99
:101FA800007A049BD3ED017A27EE277ADFED0D6ADC
:101FB800C6EE877AFCEEE77A17EE902A039B9A60C2
:101FC800059B01330593059A009B9A42FFF42EAFB7
:101FD80000BF00BF07B05DF804FB00BF140100207C
:101FE8000024F4430024744B82B00190019B0D4AF5
:101FF800934201D10C4B12E0019B0C4A934201D150
:102008000B4B0CE0019B0B4A934201D10A4B06E0B3
:10201800019B0A4A934201D1094B00E0002318466C
:1020280002B0704700C001401401002000100240B7
:1020380028010020002002403C01002000D002407E
:102048005001002000B585B00190019B1B680393E7
:10205800019B1B681846FFF7C7FF0290039B0122EC
:10206800C3F80025039B0022C3F80425029B5A6885
:10207800039BC3F80C25029B9A68039BC3F80825A9
:10208800039B0022C3F81425039B0222C3F81025E2
:10209800029B0C331A46039BC3F82025039B04229A
:1020A800C3F82425039B0022C3F82825039B00229C
:1020B800C3F82C25039B01229A6000BF05B05DF888
:1020C80004FB84B00190019B1B680393039B0022CF
:1020D800C3F80421039B01225A6000BF039BD3F875
:1020E8000431002BFAD0039B0022C3F80025039B80
:1020F8000022C3F80421039B0022C3F80821039B94
:102108000022C3F81021039B0022C3F81821039B67
:102118000022C3F80825039B0022C3F81425039B5B
:102128000022C3F81025039B0022C3F82025039B37
:102138000022C3F82425039B0022C3F82825039B0B
:102148000022C3F82C2500BF04B0704700B589B041
:1021580001908DED000A019B1B680693069B1B6886
:102168000593069B1B681846FFF73EFF0490049BE7
:102178009B6807EE903AB8EE677ADDED007A67EE75
:10218800277AFCEEE77A17EE903AADF81E30019BFD
:102198001B7C012B07D1BDF81E306FEA43436FEA61
:1021A8005343ADF81E30019B5B68049A04335B000F
:1021B8001344BDF81E209A80059B01229A60019B5A
:1021C8009B685A01019BDB6803F01F0313430393C9
:1021D800019B5A68059B02F5AC72039943F82210DB
:1021E80000BF09B05DF804FB84B00190019B1B6837
:1021F8000393039B1B680293019B5A68029B02F599
:10220800AC7253F82230B3F1FF3F14BF012300230F
:10221800DBB2184604B0704700B587B00190019B47
:102228001B680593059B1B680493059B1B68184650
:10223800FFF7DAFE0390019B5B68039A04335B00A7
:10224800134400229A80019B5A68049B02F5AC72E1
:102258004FF0FF3143F8221000BF07B05DF804FBD0
:1022680000B58BB003900291019201238DF81C30C8
:10227800029B0893019B099307AB049301230593E1
:102288000023069304AB19460398FEF70AFB03469E
:1022980083F00103DBB2002B01D000230DE0039B88
:1022A8001B681846FEF7B3FB034683F00103DBB255
:1022B800002B01D0002300E0012318460BB05DF885
:1022C80004FB00B58BB003900291019200238DF8B6
:1022D8001C30029B0893019B099307AB04930123CD
:1022E80005930023069304AB19460398FEF7D9FA21
:1022F800034683F00103DBB2002B01D000230DE07D
:10230800039B1B681846FEF782FB034683F0010314
:10231800DBB2002B01D0002300E0012318460BB0EC
:102328005DF804FB00B58FB003900B4601928DF861
:102338000B3001238DF820300DF10B030993012395
:102348000A9300238DF82C30019B0C9301230D93E5
:1023580008AB0593022306930023079305AB1946A0
:102368000398FEF79EFA034683F00103DBB2002BC5
:1023780001D000230DE0039B1B681846FEF747FBBE
:10238800034683F00103DBB2002B01D0002300E0F9
:10239800012318460FB05DF804FB00B58BB001901F
:1023A8000B468DF8033013468DF802309DF8033044
:1023B8008DF824309DF802308DF8253001238DF8F2
:1023C800183009AB07930223089306AB0393012344
:1023D80004930023059303AB19460198FEF761FAAD
:1023E800034683F00103DBB2002B01D000230DE08C
:1023F800019B1B681846FEF70AFB034683F001039E
:10240800DBB2002B01D0002300E0012318460BB0FB
:102418005DF804FB00B591B003900291019200931E
:10242800029B0893019B099300230A9300230B93B3
:1024380000230C9300230D93009B0E93129B0F9384
:1024480008AB0593022306930023079305AB1946AF
:102458000398FEF7C2FC00BF11B05DF804FB00B59D
:102468008BB001900B468DF803300DF103030693F2
:1024780001230793002308930023099306AB0393D2
:10248800012304930023059303AB19460198FEF733
:10249800A4FC00BF0BB05DF804FB00B58DB0039041
:1024A800029101920023089300230993029B0A9347
:1024B800019B0B9308AB0593012306930023079315
:1024C80005AB19460398FEF788FC00BF0DB05DF810
:1024D80004FB00B583B0019000910198FEF702FC5F
:1024E800019B1B6800991846FEF777FC019B1B6847
:1024F8001846FEF799FC0198FEF702FC00BF03B0EE
:102508005DF804FB00B58DB0039002910192009331
:10251800029B0893019B0993009B0A930E9B0B93C4
:1025280008AB0593012306930023079305AB1946CF
:102538000398FFF7CEFF00BF0DB05DF804FB00B5B0
:1025480091B00390029101920093029B0893019B22
:10255800099300230A9300230B9300230C93002371
:102568000D93009B0E93129B0F9308AB05930223C8
:1025780006930023079305AB19460398FFF7A9FFB5
:1025880000BF11B05DF804FB00B587B003900B469F
:102598008DF80B300DF117030DF10B01012200929C
:1025A80001220398FFF7CBFF9DF81730184607B0B4
:1025B8005DF804FB00B585B003900B468DF80B3031
:1025C8000DF10B0100230093002301220398FFF76C
:1025D80099FF00BF05B05DF804FB00B587B0039014
:1025E8000B468DF80B3013468DF80A309DF80B30EA
:1025F8008DF814309DF80A308DF8153005A90023A0
:102608000093002302220398FFF77CFF00BF07B066
:102618005DF804FB00B587B0059004910392002390
:1026280000930023039A04990598FFF76BFF00BFF6
:1026380007B05DF804FB000030B58DB0144B6C4654
:102648001D460FCD0FC40FCD0FC495E8030084E8D5
:1026580003006B4693E80300FDF72BFF05230A935D
:1026680001230B930BE00B9BDB000CAA1344303BBC
:1026780093E80300FDF71DFF0B9B01330B930B9AA7
:102688000A9B9A42EFDB00BF00BF0DB030BD00BF10
:10269800343D000030B591B04FF47A70FDF73DFE3F
:1026A8002D4B06AC1D460FCD0FC495E8030084E8FA
:1026B800030006AB0F930F9B04936A23059304ABA7
:1026C8000E9304AA06A801230121FEF741F80F98EA
:1026D800FEF762F8214A02AB92E8030083E80300A0
:1026E80002AB93E80300FDF77BFE012202AB93E8FF
:1026F8000300FDF708FF6420FDF719FE00238DF89D
:1027080007300DF107031A4600210E98FEF72EFD3B
:1027180003468DF83730124B0C939DED0C0A0E983A
:10272800FEF74EFD03468DF837306420FDF7FFFDB8
:102738000C490E98FEF78CFD03468DF837300022C1
:1027480002AB93E80300FDF7DEFE0F98FEF772F880
:1027580000BF11B030BD00BF5C3D0000743D0000FB
:10276800CDCC4C406401002000B5A5B03D4A0AAB71
:1027780011464822184600F0EAFF0AAB23930AAB39
:102788002433229302232193239B0493002305934C
:1027980010230693229B079301230893042309938C
:1027A80004AB209304AB0C331F9302231E9304AA9B
:1027B8000AA81E9B2199FEF77FF92398FEF7DEF9F8
:1027C8001E231D931E212098FEF714FE26492098EB
:1027D800FEF740FE2098FEF72FFE2398FEF72EFA0C
:1027E8002298FEF7CBF96B4600221A605A609A606D
:1027F8009A812023ADF8003001238DF8023001239F
:102808008DF8033001238DF8043003238DF806304A
:1028180001238DF8083001238DF8093001238DF844
:102828000A306B4619461F98FFF7FCF90F211F98CD
:10283800FEF758FF03461A460C4B1A7010211F98D2
:10284800FEF750FF03461A46094B1A7064231C937F
:102858001C98FDF76CFD2298FEF7F0F900BF25B033
:102868005DF804FB7C3D0000680100206C0100203D
:102878006D01002030B58DB0002308931F23099304
:10288800114B02AC1D460FCD0FC495E8030084E838
:10289800030002AB0B930B9B0093442301936B46FD
:1028A8000A936A4602A801230121FDF751FF4FF45C
:1028B8007A70FDF732FD0A9B0B9A08A903C900F04C
:1028C80055FC00BF0DB030BDC43D000000B593B04D
:1028D800002310931223119310AB93E80300FDF724
:1028E800E8FD3F4A0EAB92E8030083E803000EAB15
:1028F80093E80300FDF774FD00220EAB93E8030094
:10290800FDF701FE374A0CAB92E8030083E80300A9
:102918000CAB93E80300FDF7CCFD00230A931123C9
:102928000B930AAB93E80300FDF7C3FD2E4A08ABEF
:1029380092E8030083E8030008AB93E80300FDF77F
:102948004FFD002208AB93E80300FDF7DCFD0023F0
:1029580006930223079306AB93E80300FDF740FDB7
:10296800012206AB93E80300FDF7CDFD0023049395
:102978001423059304AB93E80300FDF731FD00220F
:1029880004AB93E80300FDF7BEFD184A02AB92E8DA
:10299800030083E8030002AB93E80300FDF789FD19
:1029A800134A6B4692E8030083E803006B4693E8FA
:1029B8000300FDF77EFDFFF73FFEFFF76BFEFFF715
:1029C800D3FEFFF757FF0B4B1B680133094A13600F
:1029D80020BF00BF40BF00BF20BF00BFF3E700BF5C
:1029E800743D0000DC3D0000E43D0000EC3D0000CB
:1029F800F43D00007001002000BE00BF704784B0A5
:102A080001900091019B002B1AD14FF080430122C5
:102A1800C3F818254FF0804301229A6000230393DE
:102A28000AE04FF08043D3F80431002B01D0012392
:102A380020E0039B01330393039A009B9A42F0D34F
:102A4800019B012B15D14FF0804301221A6000230E
:102A580002930AE04FF08043D3F80031002B01D0F5
:102A6800012307E0029B01330293029A009B9A42DA
:102A7800F0D30023184604B07047000082B06B46BC
:102A880083E803004FF080430122C3F818254FF074
:102A9800804301229A6000BF4FF08043D3F804318D
:102AA800002BF9D0009B5A03019B1B0213430F4ACA
:102AB80043F00313C2F810350D4B0022C3F8082564
:102AC8000B4B0122C3F844230A4B0B4AC3F81025C9
:102AD800084B064AC3F81425064B0122C3F8002503
:102AE800034B01221A6000BF02B07047006000402B
:102AF8000010014000F001400011014000B5B9B0DC
:102B08000C4A02AB1146D822184600F020FEFFF707
:102B1800DDFE00230093152301936B4693E8030021
:102B2800FFF7ACFF40BF00BF20BF00BF20BF00BF02
:102B3800F8E700BFFC3D000000B583B0284B1B68D8
:102B48001846FDF799FE034683F00103DBB2002B1C
:102B580004D0244A1921244800F07CFB234B1B682D
:102B6800694604221846FFF7ACFB03468DF8073088
:102B78009DF8073083F00103DBB2002B04D01C4A18
:102B88001D21194800F066FB9DF80030FF2BE5D0A9
:102B98009DF80030442B04D0164A1F21124800F03B
:102BA80059FB9DF80130022B04D0134A20210E480E
:102BB80000F050FB9DF80230102B04D00F4A212161
:102BC800094800F047FB9DF80330002B04D00C4A5D
:102BD8002221054800F03EFB00BF03B05DF804FB6E
:102BE8007C010020D43E0000043F0000800100204A
:102BF800503F0000583F0000703F0000943F000025
:102C0800C03F000000B585B003468DF80730154B6E
:102C18001B681846FDF7C0FD44238DF80C300123CE
:102C28008DF80D309DF807308DF80E300E4B1B686F
:102C380003A903221846FFF713FB03468DF80F304C
:102C48009DF80F30002B01D0FFF776FF054B1B686E
:102C58001846FDF7EFFD9DF80F30184605B05DF8F2
:102C680004FB00BF7C0100208001002000B589B072
:102C78000346ADF80630264A06AB92E80300186012
:102C880004331980234BD3ED027AB2EE087A67EE4B
:102C9800877AFCEEE77A17EE903AADF81E30BDF869
:102CA8001E30ADF80C301B4B1B7B9BB2ADF80E30C1
:102CB800184BD3ED017AB2EE047A67EE877AFCEE10
:102CC800E77A17EE903A9BB2ADF81030114BD3ED7E
:102CD800007A9FED117A67EE877AFCEEE77A17EEB5
:102CE800903A9BB2ADF812300C4B1B88ADF81430FB
:102CF800BDF80630ADF8163003AA06AB1946062013
:102D080000F0B6F80346184609B05DF804FB00BFAA
:102D1800E83F0000840100200000C8429401002020
:102D280000B595B00346ADF806302F49132000F0E2
:102D38000BFA03468DF84F309DF84F30002B45D0E5
:102D4800294B1B8823F00803002B3FD0264B1B88F8
:102D58001A4603AB2549184600F0CCFC03AB1A46CB
:102D68004B21234800F076FA00F050F8BDF8063001
:102D78001846FFF77BFF03468DF84F309DF84F301C
:102D880083F00103DBB2002B05D01A4A5121184801
:102D980000F060FA22E01449132000F0D5F9124B34
:102DA8001B881A460BAB1449184600F0A3FC0BAB62
:102DB8001A4656210E4800F04DFABDF8063018465E
:102DC800FFF754FF03468DF84F3007E0BDF8063093
:102DD8001846FFF74BFF03468DF84F309DF84F30EC
:102DE800184615B05DF804FB98010020F03F00007C
:102DF800043F0000004000001040000008B5022019
:102E0800FFF700FF0346184608BD000000B583B071
:102E1800124B1B681846FDF7BFFC114A6B4692E837
:102E280003001860043319800E4B1B68694606229C
:102E38001846FFF715FA03468DF807309DF8073056
:102E4800002B04D0084A6721084800F003FAFA204A
:102E5800FDF763FA00BF03B05DF804FB7C010020B6
:102E68002C4000008001002024400000043F0000A6
:102E780000B591B00346029101928DF80F30384B9E
:102E88001B681846FDF788FC05AB2122002118466F
:102E980000F086FC44238DF814309DF80F301A4654
:102EA80052001344DBB20133DBB28DF81530042332
:102EB8008DF8163003230F9300230E9329E00E9B01
:102EC800029A1A440F9B591C0F91127810A90B44AF
:102ED80003F82C2C0E9B5B00019A13441B881B0AD9
:102EE80099B20F9B5A1C0F92CAB210A90B4403F84F
:102EF8002C2C0E9B5B00019A134419880F9B5A1CBB
:102F08000F92CAB210A90B4403F82C2C0E9B013364
:102F18000E939DF80F300E9A9A42D0DB114B186829
:102F28009DF80F305A1C13465B0013441A4605AB34
:102F38001946FFF795F903468DF837309DF8373075
:102F4800002B01D0FFF7F8FD054B1B681846FDF76D
:102F580071FC9DF83730184611B05DF804FB00BFCE
:102F68007C0100208001002000B595B00346029145
:102F780001928DF80F309DF80F305B001A46002142
:102F8800019800F00DFC684B1B681846FDF704FC1F
:102F98000DAB00221A605A609A601A7344238DF8A8
:102FA80034309DF80F300133DBB28DF8353008230B
:102FB8008DF836309DF80F200DAB03330299184673
:102FC80000F0C5FBFF23049305AB1E220021184621
:102FD80000F0E6FB554B18689DF80F3003331A468E
:102FE8000DAB1946FFF73CF903468DF84F309DF8B5
:102FF8004F30002B17D04D4B18689DF80F20134603
:103008005B00134404331A4604AB1946FFF759F919
:1030180003468DF84F309DF84F30002B03D09DF8B4
:103028001030FF2BE7D0404B1B681846FDF702FC19
:103038009DF84F30002B71D09DF84F3083F001037D
:10304800DBB2002B04D03A4A90213A4800F002F94A
:103058009DF81030442B04D0374A9121354800F0B0
:10306800F9F89DF8113019469DF80F2013465B00BA
:1030780013440133994204D0304A92212D4800F07C
:10308800E9F89DF81230202B04D02D4A93212948C5
:1030980000F0E0F8032312930023119339E0129B08
:1030A8005A1C129214AA134413F8403C8DF843306A
:1030B800119B029A13441B789DF843209A4204D02E
:1030C800204A97211B4800F0C5F8129B5A1C1292FF
:1030D80014AA134413F8403C8DF84230129B5A1C32
:1030E800129214AA134413F8403C8DF841309DF80D
:1030F80042301B021AB29DF841301BB2134319B279
:10310800119B5B00019A13448AB21A80119B013308
:1031180011939DF80F30119A9A42C0DB9DF84F30F9
:10312800184615B05DF804FB7C01002080010020E2
:10313800503F0000043F0000583F000034400000AA
:10314800544000008040000000B583B00346009161
:103158008DF807300DF10703009A19460120FFF793
:1031680003FF0346184603B05DF804FB10B588B0AA
:1031780002AC84E80300019200932C4B1A4602AB80
:1031880093E8030082E80300294A019B1360294A57
:10319800009B1360284A294B14460FCB84E80F0084
:1031A800274B4FF400421A80264B00221A80264BE8
:1031B80000221A801D4B93E80300FDF711F91B4B01
:1031C800002293E80300FDF79EF90120FDF7A5F81A
:1031D800164B012293E80300FDF795F9FA20FDF755
:1031E8009CF8124B002293E80300FDF78CF940F29B
:1031F8000110FFF795FD034683F00103DBB2002BB6
:1032080011D110494420FFF79FFF0E4B1B8841F254
:103218008F72934204D80D4ABF210D4800F01AF866
:10322800FFF7ECFD00E000BF08B010BD74010020FE
:103238007C0100208001002084010020B4400000AF
:10324800940100209601002098010020944000007D
:10325800043F000000B589B0059004910392144B17
:103268001B7883F00103DBB2002B15D02F210598C2
:1032780000F055FA0790079B002B02D1059B079396
:1032880002E0079B01330793039B0093049B079A73
:103298000849094800F02EFA054B01221A70074B1D
:1032A8001B680133054A136000BF09B05DF804FBD1
:1032B8009A010020C4400000A00100209C010020C9
:1032C8004B005A0DA2F54072FF3A0FD4D2F11F02FB
:1032D8000EDD11EA410F4FEAC12141EA505040F09A
:1032E800004020FA02F028BF404270470020704793
:1032F800004218BF43F0010313F5001F88BF21F0F7
:10330800004111F0004058BF6FF000407047C0F313
:10331800C751094208BF00F0004042004FEA407020
:103328004FEA121118BF01F1605128BF81F0004126
:103338004FF08073D34238BF704701F1605118BF16
:1033480041F40021704781F0004183F0004383F08D
:103358000043F0B491EA030F00F18E80841A71EBF8
:10336800030603D212197341001BB1414FF07F4687
:1033780046F4600616EA410F08BF62E0B6EB410F5B
:1033880098BF69E04FEA1154A4EB1357B14341F4D5
:10339800801116EA430F07BF00230022B34343F40A
:1033A8008013D7F1200634D303FA06F5401941F10A
:1033B800000122FA07F5401923FA07F541EB050148
:1033C80002FA06F211F4001F19D121F4801101EB61
:1033D8000451F0BCB2F1004F08BF10EA500F50F191
:1033E800000041F100014FF07F4343F46003B3EB69
:1033F800410F88BF7047090D09050020704749082B
:103408005FEA30005FEA320228BF42F0010201346D
:10341800DBE7203F402F19D223FA07F5401941F185
:103428000001C7F12006124218BF012203FA06F56F
:103438002A43C7E711EA560F04BF00200021F0BC59
:10344800704701F000410020F0BC704721F4801162
:1034580001EB0451F0BC7047004218BF41F0010174
:10346800B6EB410F04BFF0BC70474FF0FE4141F48A
:1034780078010020F0BC704783F00043841A71EB98
:10348800030705D287F00047001BB94112197B4199
:103498005FF07F4656F4600616EA430FCAD0B6EBD3
:1034A800410F40F28C800C0DA4EB1357C90241EA7E
:1034B8005051C00241F00041DB0243EA5253D202AC
:1034C80043F00043D7F120065AD302FA06FCFA402B
:1034D80003FA06F52A43FB401CEA0C0F18BF42F01A
:1034E8000102801A9941E30A6405640D11F0404F06
:1034F8002ED427D1002902BF01460020203C0029F4
:103508005BD0B1F5803F3FBF103C090441EA104150
:103518000004B1F1807F3FBF083C090241EA106115
:103528000002B1F1805F3FBF043C090141EA10711C
:10353800000111F0404F01BF023C890041EA90713F
:10354800800009425FBF013C490041EAD071400058
:10355800002C11DD420521F00041C00A40EA41502B
:10356800C90A41EAC371460872F1004250F10000ED
:1035780051EB0451F0BC70470020D907F0BC7047EC
:10358800A7F12007202F0CD2C7F1200603FA06F571
:10359800FB402A4318BF43F00103C01A61F1000140
:1035A800A1E721F00041C00A40EA4150C90A01EBF5
:1035B8000451F0BC704700200021F0BC7047004265
:1035C80018BF41F00101B6EB410F7FF44EAFB6EBE7
:1035D800430F3FF44AAFF0BC70474FF4001C1CEB9C
:1035E800410F98BF1CEB430F0CD850EA410C08BFA1
:1035F80052EA430C08D0904208BF99420CBF012000
:10360800002070470020704701207047000000002C
:10361800F8B555EC104B10EE100A0022002329468D
:10362800FFF7DBFFA8BBC5F30A51A1F2FF30002862
:1036380022462B4626DB33282BDC1F4DC0F1200603
:103648004FF0FF3405FA06F6C440A1F21F4125FAEF
:1036580001F134430C43C54002EA040603EA0507B6
:1036680023EA050156EA070322EA040017D00028D6
:1036780071F1000313DB114B0022FFF76AFE41ECE6
:10368800100BF8BD002C73F1000305DB9FED060B52
:10369800F8BD45EC104BF8BD9FED050BF8BD41ECAE
:1036A800100BF8BDAFF30080000000000000F03FF1
:1036B8000000000000000000FFFF0F000000F03FC6
:1036C80038B504460846A26842B1236861685D1CA3
:1036D8008D4208BF00208B4208D2D054E3682BB13A
:1036E80021686268914201D22146984723680133D4
:1036F800236038BD0EB400B586B007AA52F8041B83
:1037080005920390002304936FF00043029301A8ED
:1037180000F07AF806B05DF804EB03B0704730B4F7
:103728000246134612F8014B002CFAD10446CDB2DA
:103738001846A34204D0013B0278AA42F8D104E01B
:103748001B78C9B28B4218BF002030BC7047844632
:1037580040EA010313F0030F18D18446202A0BD343
:103768002DE9F007B1E8F807A0E8F807A2F1200270
:10377800202AF7D2BDE8F007042A07D351F8043B02
:1037880040F8043BA2F10402042AF7D2002A05D02B
:1037980011F8013B00F8013B013AF9D16046704746
:1037A8008446002A2DD010F0030F04D000F8011B26
:1037B800013A26D0F7E7C9B241EA012141EA0141BD
:1037C800202A12D3A2F120022DE9F0030B460C4661
:1037D8000D460E460F4688468946A0E8FA03203A69
:1037E800FBD2BDE8F00320320BD0042A05D340F801
:1037F800041B043A05D0042AF9D200F8011B013A47
:10380800FBD16046704700002DE9F04F89B00746AC
:103818000392002303600D4615F8011B002900F0F0
:103828006082DFF85CB4DFF85CA4DFF85C9444E203
:10383800002207E05E2834D142F4805201E042F0D1
:10384800400225462C4614F8010B2B28F2D81F28D5
:103858002DD9A0F120030B2B23D801A151F823F077
:1038680047380000AB380000AB380000993800003A
:10387800AB380000AB380000AB3800009F380000C0
:10388800AB380000AB380000AB380000A5380000AA
:1038980042F08002D5E742F40042D2E742F020022B
:1038A800CFE7742801D07A2863D12078AC1C00288F
:1038B80000F02382A0F12503DBB2532B67D8A0F1D7
:1038C8002503532B63D8DFE813F06F006200620012
:1038D80062006200620062006200620062006200D0
:1038E80062006200620062006200620062006200C0
:1038F80062006200620062006200620062006200B0
:10390800620062006200620062006200620062009F
:10391800620062006200620062006200620062008F
:10392800620062006200620062006200620062007F
:10393800B000620062006200620062006200620021
:1039480062006200620074001B0162006200620093
:1039580062001B0162006200620062007C001501C7
:103968009D00620062008D0062001F01620062001B
:10397800B20068289BD12078682803D0AC1C42F09C
:10398800040294E742F00802607802348FE7BB4BE8
:103998001D68002D00F08D8103AB01934FF0FF33BC
:1039A80000933946A84784E125213846FFF788FE69
:1039B8007FE1039B1A1D039219783846FFF780FEB2
:1039C80077E112F0080F06D03A68039B191D03919E
:1039D8001B681A706DE1039B1A1D03921B683A68F5
:1039E8001A6066E1039B1A1D03921D682978002955
:1039F80000F05F813846FFF763FE15F8011F0029C4
:103A0800F8D156E1039B191D03911B6812F0800F32
:103A18000CBF0026232642F48072002B40F0DB8086
:103A280030238DF81430012531E142F4005212F0B0
:103A3800800F6BD043F2780643F25803782818BFFA
:103A48001E4612F4804F70D0039B191D03911B680A
:103A580012F0040F5CD01BB2002B5DDA5B422D26FE
:103A68005838202800F23B8101A151F820F000BF0E
:103A7800233A0000E73C0000E73C0000E73C000078
:103A8800E73C0000E73C0000E73C0000E73C0000A2
:103A9800E73C0000E73C0000E73C0000E73C000092
:103AA800313C0000E73C0000E73C0000E73C000038
:103AB800E73C0000313C0000E73C0000E73C000028
:103AC800E73C0000E73C0000E73C0000093C000040
:103AD800233A0000E73C0000E73C0000E73C000018
:103AE800E73C0000313C0000E73C0000E73C0000F8
:103AF800233A000012F0800F0CBF00263026A0E702
:103B080042F4804200269CE700269AE7002698E7C0
:103B180012F0080FA0D0DBB212F0200F40F0F080B6
:103B280012F0400F09D020269AE7039B191D039134
:103B38001B6812F0040F49D09BB25838202800F2B5
:103B4800A58001A151F820F0233A0000953C00001F
:103B5800953C0000953C0000953C0000953C000019
:103B6800953C0000953C0000953C0000953C000009
:103B7800953C0000953C0000313C0000953C00005D
:103B8800953C0000953C0000953C0000313C00004D
:103B9800953C0000953C0000953C0000953C0000D9
:103BA800953C0000093C0000233A0000953C0000C9
:103BB800953C0000953C0000953C0000313C00001D
:103BC800953C0000953C0000233A000012F0080FD5
:103BD80018BFDBB2B1E705A9002502F4005208E0DE
:103BE80003F00F001BF8000001F8010B01351B0959
:103BF8004DD0002AF4D003F00F001AF80000F3E7C4
:103C080023B930238DF81430012540E01A4605A960
:103C1800002503F00703303301F8013B0135D208D2
:103C28001346002AF5D132E023B930238DF8143039
:103C380001252CE0002502F400424FF02C0E10E084
:103C480008A901EB050CA9FB0310C00800EB8001D3
:103C5800A3EB410130310CF80C1C0135092B16D9A6
:103C68000346002AECD005F003010329E8D108A98E
:103C7800294401F80CEC0135E2E700BF20020020DE
:103C8800D8400000E8400000CDCCCCCC0025FF2E69
:103C98001BD8F6B9002D0CDD0DF11408013D454483
:103CA80029782E463846FFF70BFD454505F1FF35C7
:103CB800F6D1254615F8011B99B125293FF4B8AD71
:103CC8003846FFF7FDFC2C46F3E7310A3846FFF784
:103CD800F7FC06F07F013846FFF7F2FCDAE700252B
:103CE800F7E7BB682BB13A6879688A423CBF002184
:103CF8009954386809B0BDE8F08F4FF0FF30F9E704
:043D08002B26ADE6D3
:103D0C00000000000338FDD87047000001000000DF
:103D1C0006000000103811001244130014001500A6
:103D2C001600170018001900010000000B0000001D
:103D3C000100000000000000000000001A0000005C
:103D4C000100000008000000000000001B00000043
:103D5C0000300040010000000C00000001000000D9
:103D6C000D000000A0860100010000000F00000003
:103D7C0000400040000000000F00000000000000A8
:103D8C000E000000000000000D00000000127A0080
:103D9C00030000000030024001000000030000009E
:103DAC0001000000020000000100000005000000FE
:103DBC0000127A00030000000030004000000000F8
:103DCC001D000000000000001E000000A086010085
:103DDC00010000000A000000010000000E000000BD
:103DEC0001000000060000000100000001000000BE
:103DFC00012A0000510E0000BF030000E90300007F
:103E0C00130400003D04000067040000910400004E
:103E1C00BB040000E50400000F0500005305000082
:103E2C0059070000A10700003D08000081080000B0
:103E3C00AB080000170A0000C10A0000850B000047
:103E4C00450C0000C30C0000ED0C0000090D000037
:103E5C00250D0000E30D0000310E0000751100006F
:103E6C009B110000C911000059120000ED16000052
:103E7C00151700002D1C0000611B00000518000028
:103E8C0089190000FD130000411400005D140000AE
:103E9C00E1140000B71400007F150000FD140000B1
:103EAC009B1500004D1600001D1E00004D2000004B
:103EBC00CB20000055210000F12100002122000040
:103ECC00D5280000072A000066645F6932636D5FC5
:103EDC006275735F69735F656E61626C6564286699
:103EEC00645F706572666F726D5F74656B5F69326B
:103EFC00635F6275732900002F55736572732F64AD
:103F0C00656E69732F73616E64626F782F64656E72
:103F1C006973626F686D2F66697265666C792D695D
:103F2C0063652D6669726D776172652F7372632F8D
:103F3C0066645F706572666F726D5F74656B2E631D
:103F4C0000000000726573756C740000726573700C
:103F5C006F6E73655B305D203D3D205041434B459A
:103F6C0054000000726573706F6E73655B315D2079
:103F7C003D3D2073697A656F6628726573706F6E4C
:103F8C00736529202D203200726573706F6E736516
:103F9C005B325D203D3D2046445F504552464F52BA
:103FAC004D5F54454B5F434F4D4D414E445F416314
:103FBC006B000000726573706F6E73655B335D2010
:103FCC003D3D2046445F504552464F524D5F54454F
:103FDC004B5F41434B5F41434B00000016171819D0
:103FEC001B2C0000485220504F535420253034785D
:103FFC000000000048522052455345542053544170
:10400C0052540000485220524553455420504F53AF
:10401C00542025303478000021726573756C74005F
:10402C004404041A80000000726573706F6E73652F
:10403C005B315D203D3D2031202B20636F756E740C
:10404C00202A203300000000726573706F6E736558
:10405C005B325D203D3D2046445F504552464F52F9
:10406C004D5F54454B5F434F4D4D414E445F446152
:10407C007461000070203D3D20706172616D65744B
:10408C006572735B695D000066645F706572666F74
:10409C00726D5F74656B5F76657273696F6E203ECF
:1040AC003D203630333200006666E63F3333A342A0
:1040BC000000F0410100000025732025643A202502
:1040CC007300000066645F6C6F6700003031323340
:1040DC003435363738396162636465663031323372
:0C40EC00343536373839414243444546EC
:0440F8000090D00361
:04000003000002B542
:00000001FF
