:1000000078110020B90200005102000053020000E4
:1000100055020000570200005902000000000000D5
:100020000000000000000000000000005B02000073
:100030005D020000000000005F020000610200009D
:100040006302000065020000670200006902000010
:100050006B0200006D0200008D05000071020000BF
:1000600073020000750200007702000079020000B0
:100070007B0200007D0200007F0200008102000080
:100080008302000085020000870200008902000050
:100090008B0200008D0200008F0200009102000020
:1000A00093020000950200009702000099020000F0
:1000B0009B0200009D020000000000000000000004
:1000C0009F020000A1020000A3020000A5020000A0
:1000D000A7020000A9020000AB020000AD02000070
:1000E000AF020000B1020000B3020000B502000040
:0800F00000000000B70200004F
:1000F800354936480A1A02D0072291438D463449B9
:1001080034480A1A06D00722914381F3098802224B
:1001180082F3148830483149314A00F043F83148B5
:100128003149324A00F03EF831483249324A00F04B
:1001380039F832483249334A00F034F83248334902
:10014800334A00F02FF833483349344A00F02AF88C
:1001580033483449344A00F025F8344834490022F9
:1001680000F02BF833483449002200F026F83348D1
:100178003349091A082903DB0022026004300160B0
:100188001F482049884205D00268043003B49047CC
:1001980003BCF7E700208646EC4600200021294AE8
:1001A8009047FEE7884207D0521A05D003780130FD
:1001B8000B700131013AF9D17047884202D00270C0
:1001C8000130FAE770470000781100207809002014
:1001D80078110020781100206C2D0000000000200C
:1001E80004000020CC020000CC020000A82B000074
:1001F8006C2D00000000002000000020A82B00004B
:10020800A82B0000A82B0000A82B0000A82B00009A
:10021800A82B0000A82B0000A82B00006C2D0000C4
:10022800702D0000740100207401002004000020DB
:100238007401002074010020740100207401002062
:1002480074090020DD260000FEE7FEE7FEE7FEE772
:10025800FEE7FEE7FEE7FEE7FEE7FEE7FEE7FEE76E
:10026800FEE7FEE7FEE7FEE7FEE7FEE7FEE7FEE75E
:10027800FEE7FEE7FEE7FEE7FEE7FEE7FEE7FEE74E
:10028800FEE7FEE7FEE7FEE7FEE7FEE7FEE7FEE73E
:10029800FEE7FEE7FEE7FEE7FEE7FEE7FEE7FEE72E
:1002A800FEE7FEE7FEE7FEE7FEE7FEE7FEE7FEE71E
:1002B8000348854600F0FAFCFFF71ABF70470000B4
:0402C800000004200E
:1002CC0000B585B00190019B002B0AD0074B43F081
:1002DC0001030393019B9B010293039B0298984794
:1002EC0000E000BF05B05DF804FB00BFB02B0000C0
:1002FC0000B583B00190019B002B0AD04FF47A70AB
:10030C00FFF7DEFF019B013B0193019B002BF5D115
:10031C0000E000BF03B05DF804FB00B583B00190B2
:10032C000198FFF7E5FF00BF03B05DF804FB00B5D3
:10033C0083B001900198FFF7C3FF00BF03B05DF8D5
:10034C0004FB82B00190019A13465B0013441B021C
:10035C0003F1A043184602B0704710B586B002AC4A
:10036C0084E8030011461A460B468DF807301346F5
:10037C008DF80630029B1846FFF7E3FF05909DF8B9
:10038C0007209DF806305B001A439DF820309B0037
:10039C001A439DF824301B0242EA03019DF82830D1
:1003AC001B04039A1943059B02F5E07243F82210D3
:1003BC0000BF06B010BD00B587B004AB83E80300E6
:1003CC0000230293002301930023009301230022B6
:1003DC0004A903C9FFF7C1FF00BF07B05DF804FB18
:1003EC0000B587B004AB83E803000023029300231D
:1003FC000193002300930123012204A903C9FFF7F1
:10040C00ACFF00BF07B05DF804FB00B587B004ABD0
:10041C0083E8030000230293062301930023009337
:10042C000123012204A903C9FFF797FF00BF07B0FE
:10043C005DF804FB00B587B004AB83E80300002330
:10044C00029306230193032300930123012204A9A1
:10045C0003C9FFF782FF00BF07B05DF804FB00B5CE
:10046C0087B004AB83E803000023029304230193B9
:10047C00012300930123012204A903C9FFF76DFF97
:10048C0000BF07B05DF804FB00B587B004AB83E890
:10049C000300002302930023019300230093002305
:1004AC00002204A903C9FFF758FF00BF07B05DF88D
:1004BC0004FB00B587B004AB83E803000023029370
:1004CC0000230193032300930023002204A903C9F2
:1004DC00FFF743FF00BF07B05DF804FB00B587B022
:1004EC0004AB83E803000023029300230193012350
:1004FC0000930023002204A903C9FFF72EFF00BFBD
:10050C0007B05DF804FB00B587B002AB83E80300CD
:10051C0013468DF80730029B1846FFF712FF059023
:10052C009DF80730002B06D0039B01229A40059BB7
:10053C00C3F8082505E0039B01229A40059BC3F8EC
:10054C000C2500BF07B05DF804FB00B585B06B4609
:10055C0083E80300009B1846FFF7F3FE0390039B10
:10056C00D3F81025019B22FA03F303F00103002BAF
:10057C0014BF01230023DBB2184605B05DF804FB61
:10058C0000B585B00023039352E03C4A039B4033F3
:10059C0052F82330002B48D0384A039B40330021BB
:1005AC0042F82310364B1B68039A9A423DD2039AA9
:1005BC001346DB009B1A9B00324A13440193019BA8
:1005CC009B695A1C019B9A61019B1B7D8DF8033022
:1005DC00019B93E80300FFF7B8FF03468DF8023048
:1005EC00019B9DF802201A759DF802209DF803309E
:1005FC009A4212D1019BDB68019A10699DF8022086
:10060C00002A14BF01220022D2B282F00102D2B21F
:10061C0002F00102D2B211469847019BDB68019AA5
:10062C0012699DF8021010469847039B01330393FF
:10063C00039B072BA9D9114BD3F87C31002B18D075
:10064C000E4B0022C3F87C210F4B1B78DBB2002B26
:10065C000FD00E4B0293029B9B695A1C029B9A6112
:10066C00029BDB68029A1069029A127DD2B2114683
:10067C00984700BF05B05DF804FB00BF0060004068
:10068C00E400002004000020E8000020EC00002022
:10069C0000B587B00390029101920093002305935B
:1006AC000EE0059A13465B001344DB001A46039BCD
:1006BC0013440493049800F059F8059B01330593F7
:1006CC00059A029B9A42ECD300BF07B05DF804FB7D
:1006DC0000B585B00190019800F06AF80346002B34
:1006EC0040D1019B043393E80300FFF7A3FE019B69
:1006FC000122043393E80300FFF705FF019B0C3341
:10070C0093E80300FFF796FE019B01220C3393E85C
:10071C000300FFF7F8FE019B1B680393019B5B68CA
:10072C005A01019B9B6803F01F031A43039BC3F8F8
:10073C000825019BDB685A01019B1B6903F01F0311
:10074C001A43039BC3F80C25039B4FF0CC72C3F8E0
:10075C002425039B0022C3F80022039B0622C3F826
:10076C00002500E000BF05B05DF804FB00B585B0C6
:10077C000190019800F01CF8034683F00103DBB2F2
:10078C00002B11D1019B1B680393039B0022C3F820
:10079C000025039B4FF0FF32C3F80825039B4FF055
:1007AC00FF32C3F80C2500E000BF05B05DF804FB78
:1007BC0084B00190019B1B68039306230293039B57
:1007CC00D3F80025029B1340029A9A420CBF0123D6
:1007DC000023DBB2184604B0704786B0019000913C
:1007EC00019B1B681B680493019B5A68049BC3F80C
:1007FC008825049B0022C3F82421049B0022C3F803
:10080C000421049B0722C3F8C4240023059387E02A
:10081C00009B5B68013B059A9A420CBF01230023A5
:10082C008DF80F30049B0022C3F84821009B1968F7
:10083C00059A13465B0013449B000B440293029BE6
:10084C001B78012B1AD1029B9A68049BC3F848258C
:10085C00029B5B681A46049BC3F844259DF80F3035
:10086C00002B02D04FF4007201E04FF48072049B15
:10087C00C3F80022049B01229A6019E0029B9A683B
:10088C00049BC3F83825029B5B681A46049BC3F88B
:10089C0034259DF80F30002B02D04FF4805201E02C
:1008AC004FF40062049BC3F80022049B01221A60DF
:1008BC00059B002B02D0049B01221A629DF80F307D
:1008CC00002B0BD000BF049BD3F80431002B10D1AC
:1008DC00049BD3F82431002BF5D00AE000BF049B15
:1008EC00D3F84831002B04D1049BD3F82431002BCE
:1008FC00F5D0049BD3F82431002B0ED0049BD3F8F5
:10090C000431002B13D1049B01225A6100BF049BBC
:10091C00D3F80431002BFAD009E0059B0133059381
:10092C00009B5B68059A9A42FFF472AF00E000BF2F
:10093C00049BD3F82431002B0CBF01230023DBB222
:10094C00184606B0704782B001900123184602B0D9
:10095C00704700B589B00390029101920093002377
:10096C00079318E0079A13465B0013449B001A4642
:10097C00019B13440493049B043393E80300FFF797
:10098C002FFD049B0122043393E80300FFF7BBFD0A
:10099C00079B01330793079A009B9A42E2D30023EB
:1009AC0006932EE0069A1346DB0013449B001A466E
:1009BC00039B13440593059B043393E80300FFF753
:1009CC000FFD059B0122043393E80300FFF79BFD09
:1009DC00059B0C3393E80300FFF702FD059B0122F6
:1009EC000C3393E80300FFF78EFD059B143393E85B
:1009FC000300FFF75EFD059800F052F8069B0133EB
:100A0C000693069A029B9A42CCD300BF09B05DF8BC
:100A1C0004FB00B585B00190019800F080F8034606
:100A2C00002B39D1019B1B680393039B4FF00042B1
:100A3C00C3F82425039B0622C3F85425019B5B684D
:100A4C005A01019B9B6803F01F031A43039BC3F8D5
:100A5C000825019BDB685A01019B1B6903F01F03EE
:100A6C001A43039BC3F80C25019B5B695A01019B3C
:100A7C009B6903F01F031A43039BC3F81025039BC8
:100A8C000122C3F85025039B0122C3F84025039B88
:100A9C000722C3F8002500E000BF05B05DF804FB99
:100AAC0000B585B00190019800F039F8034683F049
:100ABC000103DBB2002B2ED1019B1B680393039B1C
:100ACC004022C3F80823039B0022C3F84C21039B4C
:100ADC000022C3F80421039B0022C3F81021039BBE
:100AEC000022C3F82021039B0022C3F81821039B8A
:100AFC000022C3F80025039B4FF0FF32C3F80825F2
:100B0C00039B4FF0FF32C3F80C25039B4FF0FF32D1
:100B1C00C3F8102500E000BF05B05DF804FB84B0FD
:100B2C000190019B1B68039307230293039BD3F84B
:100B3C000025029B1340029A9A420CBF012300230A
:100B4C00DBB2184604B0704700B583B00190019B2E
:100B5C000022043393E80300FFF7D5FC00BF03B079
:100B6C005DF804FB00B583B00190019B01220433B6
:100B7C0093E80300FFF7C7FC00BF03B05DF804FB6C
:100B8C0000B583B00190019B043393E80300FFF799
:100B9C00DCFC0346002B14BF01230023DBB283F0E3
:100BAC000103DBB203F00103DBB2184603B05DF8BE
:100BBC0004FB8AB00390029101920093039B1B6883
:100BCC000793029A079BC3F84425009A079BC3F826
:100BDC003425019B09930A9B089326E0099BFF2B64
:100BEC0028BFFF230693079B069AC3F84825089B4A
:100BFC00FF2B28BFFF230593079B059AC3F83825C5
:100C0C00079B0022C3F81821079B01221A6100BF21
:100C1C00079BD3F81831002BFAD0099A069BD31AEC
:100C2C000993089A059BD31A0893099B002BD5D1DD
:100C3C00089B002BD2D100BF0AB0704700B587B01B
:100C4C00039002910023059315E0029B1A68059B03
:100C5C001B0113440493049B1968049B5A68049B5E
:100C6C009868049BDB68009303460398FFF7A1FF89
:100C7C00059B01330593029B5B68059A9A42E4D36A
:100C8C0000BF07B05DF804FB82B0019000BF02B05A
:100C9C0070470000024B034A1A6000BF704700BF48
:100CAC00000000200090D00308B500F0EBF80346DC
:100CBC00002B0ED04FF080430022C3F80C214FF0D4
:100CCC0080430022C3F810214FF080430022C3F868
:100CDC00382500F0F5F80346002B76D04FF0805302
:100CEC00604AD3F80434C2F820354FF080535D4A83
:100CFC00D3F80834C2F824354FF08053594AD3F84E
:100D0C000C34C2F828354FF08053564AD3F81034BF
:100D1C00C2F82C354FF08053524AD3F81434C2F831
:100D2C0030354FF080534F4AD3F81834C2F834356D
:100D3C004FF080534B4AD3F81C34C2F840354FF077
:100D4C008053484AD3F82034C2F844354FF08053CE
:100D5C00444AD3F82434C2F848354FF08053414A02
:100D6C00D3F82834C2F84C354FF080533D4AD3F8B1
:100D7C002C34C2F850354FF080533A4AD3F8303403
:100D8C00C2F854354FF08053364AD3F83434C2F895
:100D9C0060354FF08053334AD3F83834C2F8643599
:100DAC004FF080532F4AD3F83C34C2F868354FF0DB
:100DBC0080532C4AD3F84034C2F86C354FF0805332
:100DCC00284AD3F84434C2F8703500F097F803463B
:100DDC00002B02D0244B254A1A6000F0A1F80346E0
:100DEC00002B03D0224BFB22C3F8182500F0AAF8E5
:100DFC000346002B0AD01F4B1B6823F00F021E4B1F
:100E0C001B6803F00F031B4913430B6000F0ACF895
:100E1C000346002B03D0194B4FF400721A6000F0FC
:100E2C00B5F80346002B0DD04FF08043D3F80034B7
:100E3C0003F00103002B05D04FF080436FF001024B
:100E4C00C3F800240E4BD3F888300D4A43F47003DA
:100E5C00C2F88830BFF34F8FBFF36F8FFFF71AFFC5
:100E6C0000BF08BD00C000408C5600404881030004
:100E7C0000F00040E40E0040580200104096024082
:100E8C0000ED00E00C4B1B68082B11D10B4B1B68C1
:100E9C00002B01D101230CE0084B1B68012B01D165
:100EAC00012306E0054B1B68022B01D1012300E056
:100EBC0001231846704700BF3001001034010010A8
:100ECC000C4B1B68082B11D10B4B1B68002B01D151
:100EDC0001230CE0084B1B68012B01D1012306E018
:100EEC00054B1B68022B01D1012300E0012318469E
:100EFC00704700BF3001001034010010064B1B6816
:100F0C00082B05D1054B1B68002B01D1012300E0F8
:100F1C0000231846704700BF300100103401001048
:100F2C00064B1B68082B05D1054B1B68002B01D108
:100F3C00012300E000231846704700BF3001001069
:100F4C0034010010064B1B68082B05D1054B1B68A0
:100F5C00002B01D1012300E000231846704700BF8D
:100F6C003001001034010010064B1B68082B05D112
:100F7C00054B1B68002B01D1012300E00023184610
:100F8C00704700BF30010010340100100C4B1B687F
:100F9C00082B11D10B4B1B68002B01D101230CE04A
:100FAC00084B1B68012B01D1012306E0054B1B6884
:100FBC00022B01D1012300E001231846704700BF2A
:100FCC00300100103401001000B585B003900B46C1
:100FDC0001928DF80B309DF80B30019A194603984D
:100FEC0001F015F80346184605B05DF804FB00B592
:100FFC0083B001900B468DF8033013468DF8023008
:10100C009DF802209DF803301946019801F03AF83A
:10101C000346184603B05DF804FB000000B585B02C
:10102C0001908DED000ADDED007AB2EE047A67EEE8
:10103C00877A9FED1D7A77EE877AFDEEE77A17EEC9
:10104C00903A0393039B112B01DC12230393039B14
:10105C00212B01DD2123039300238DF80830039B02
:10106C00DBB2123BDBB203F00F03DAB29DF80830AF
:10107C0062F344038DF808309DF8083043F06003A8
:10108C008DF808309DF8083043F080038DF8083057
:10109C009DF808301A4606210198FFF7A8FF034671
:1010AC00184605B05DF804FBCDCC4C3D00B587B0BF
:1010BC0001900091009B4FF000021A6003AB1A469E
:1010CC0005210198FFF780FF034683F00103DBB293
:1010DC00002B01D00023A6E09DF80C30C3F346038F
:1010EC00DBB207EE903AB8EEE77ADFED516AC7EE65
:1010FC00267A9FED507A77EE877ACDED047A00232D
:10110C008DF808309DF8083043F080038DF80830D6
:10111C009DF808301A460A210198FFF768FF03462C
:10112C0083F00103DBB2002B01D000237BE0022013
:10113C00FFF7F3F800238DF8083002AB1A460A21AA
:10114C000198FFF741FF034683F00103DBB2002B4C
:10115C0001D0002367E09DF80830C3F34113DBB2E4
:10116C0007EE903AF8EEE77A9FED337A67EE877ADE
:10117C009FED327A77EE877ACDED057A9DF80830BF
:10118C00C3F38203DBB2013B062B3ED801A252F81B
:10119C0023F000BFBD110000CF110000E1110000D1
:1011AC001712000017120000F311000005120000C6
:1011BC00DDED057A9FED227A77EE877ACDED057A13
:1011CC0027E0DDED057A9FED1F7A77EE877ACDED7E
:1011DC00057A1EE0DDED057A9FED1B7A77EE877AB6
:1011EC00CDED057A15E0DDED057A9FED187A77EEF9
:1011FC00877ACDED057A0CE0DDED057A9FED0E7A60
:10120C0077EE877ACDED057A03E04FF00003059376
:10121C0000BF9DED047ADDED057A67EE277A009B21
:10122C00C3ED007A0123184607B05DF804FB00BF3C
:10123C000000C84266666640CDCCCC3D9A99193FF9
:10124C000AD7A33C0AD7233D8FC2753D0AD7A33DCD
:10125C0000B587B003900291AB238DF814300023B6
:10126C008DF8153000238DF8163000238DF81730CB
:10127C000398FFF769FC039B18680DF1130205A98D
:10128C00012300931346042200F039FF039B1B68D3
:10129C001846FFF7F9FC0298FFF749F80398FFF797
:1012AC0061FC00BF07B05DF804FB00B583B0019092
:1012BC00019800F041F8B921019800F0F1FF00BF4E
:1012CC0003B05DF804FB00B589B003900291902344
:1012DC008DF81C3000238DF81D3000238DF81E3046
:1012EC0000238DF81F3006AA07A90223009313468A
:1012FC000422039800F098FF9DF81820029B1A70A6
:10130C009DF81920029B5A709F238DF8143004AA63
:10131C0005A90323009313460122039800F084FFD0
:10132C009DF81120029B9A709DF81220029BDA7096
:10133C0000BF09B05DF804FB00B585B00190052134
:10134C00019800F096FF03468DF80F309DF80F3092
:10135C0003F00103002BF2D100BF05B05DF804FBD4
:10136C0000B583B001900198FFF7E6FF06210198C4
:10137C0000F096FF00BF03B05DF804FB00B587B02A
:10138C0001900091009B03F07F43002B1CD0212384
:10139C008DF81030009B1B0EDBB28DF81130009BCA
:1013AC001B0CDBB28DF81230009B1B0ADBB28DF8E4
:1013BC001330009BDBB28DF8143004AB05221946B8
:1013CC00019800F09DFF16E020238DF80C30009B57
:1013DC001B0CDBB28DF80D30009B1B0ADBB28DF8B9
:1013EC000E30009BDBB28DF80F3003AB0422194694
:1013FC00019800F085FF00BF07B05DF804FB00B555
:10140C0083B001900198FFF797FF6021019800F0DD
:10141C0047FF00BF03B05DF804FB00B593B0039029
:10142C000291019200930398FFF786FF029B03F051
:10143C007F43002B18D012238DF83C30029B1B0EDF
:10144C00DBB28DF83D30029B1B0CDBB28DF83E30CD
:10145C00029B1B0ADBB28DF83F30029BDBB28DF88E
:10146C0040300523119312E002238DF83C30029B8F
:10147C001B0CDBB28DF83D30029B1B0ADBB28DF8E6
:10148C003E30029BDBB28DF83F30042311930FAB3F
:10149C000793119B08930023099300230A93019B44
:1014AC000B93009B0C9300230D9300230E9307AB1F
:1014BC000493022305930023069304AB1946039867
:1014CC0000F07CFE00BF13B05DF804FB00B58BB0E0
:1014DC0005900491039202930598FFF72DFF049B4E
:1014EC0003F07F43002B21D00C238DF82030049B7C
:1014FC001B0EDBB28DF82130049B1B0CDBB28DF87C
:10150C002230049B1B0ADBB28DF82330049BDBB228
:10151C008DF8243000238DF8253008A9029B009308
:10152C00039B0622059800F07FFE1BE00B238DF831
:10153C001830049B1B0CDBB28DF81930049B1B0A72
:10154C00DBB28DF81A30049BDBB28DF81B30002314
:10155C008DF81C3006A9029B0093039B052205986D
:10156C0000F062FE00BF0BB05DF804FB00B583B069
:10157C0001900B468DF803309DF8033063F07F0328
:10158C00DBB21946019800F074FE0346184603B00E
:10159C005DF804FB00B583B001900B468DF8033069
:1015AC0013468DF802309DF802209DF80330194641
:1015BC00019800F088FE00BF03B05DF804FB00B595
:1015CC0085B001900B468DF803301346ADF8003012
:1015DC009DF803308DF80C30BDF80030DBB28DF87F
:1015EC000D30BDF800301B0A9BB2DBB28DF80E300B
:1015FC0003AB03221946019800F082FE00BF05B030
:10160C005DF804FB84B001900091019A009B134497
:10161C001B788DF80F30009B0133019A13441B7813
:10162C008DF80E309DF80E301B021AB29DF80F305B
:10163C001BB213431BB29BB2184604B07047000098
:10164C0000B59BB003900023ADF85A300023ADF8E1
:10165C0058300023ADF8563000231993A3E0564AB6
:10166C0010AB92E8030083E8030010AB93E803008F
:10167C00FEF76BFF03468DF855300398FFF764FABD
:10168C00BA238DF83F30039B18680EAA0DF13F0169
:10169C00042300931346012200F031FD039B1B68C9
:1016AC001846FFF7F1FA0EAB00211846FFF7AAFF18
:1016BC000346ADF85230BDF85230C3F30B03ADF80E
:1016CC0062300EAB02211846FFF79CFF0346C3F3B2
:1016DC000903ADF850309DF839308DF84F309DF836
:1016EC004F3003F01003002B04D00398FFF73AFAA5
:1016FC0000235DE0199B002B04DD304B1B6801338C
:10170C002E4A13609DF84F3003F04003002B08D095
:10171C002B4B1B6801332A4A13604FF40063ADF85E
:10172C006230BDF85230ADF85A30BDF86230ADF8C9
:10173C005830BDF85030ADF85630BDF85030002B55
:10174C002BD009231293BDF85030129AD31A129A47
:10175C0013441793BDF86230179A9A4202D9BDF818
:10176C0062301793039B1868179B5A0005AB1946F8
:10177C0000F008FD039B1B681846FFF785FA0398D9
:10178C00FFF7F0F9179B9BB2BDF86220D31AADF8A6
:10179C006230199B0133199305E00398FFF7E2F9C6
:1017AC00BDF8623004E0199B092B7FF758AF00237A
:1017BC0018461BB05DF804FBB82B00000C01002090
:1017CC001001002000B597B003900291019203988C
:1017DC00FFF736FF139009231293139A129BB2FB57
:1017EC00F3F31593159A019B9A4201D9019B15931A
:1017FC000398FFF7A9F9039B1B68BE21184600F05C
:10180C00A3FC039B1B681846FFF73EFA00231493B6
:10181C006BE0039B1B6804A91222184600F0B2FC73
:10182C00039B1B681846FFF72FFA149B1B01029AA7
:10183C001344119304AB00211846FFF7E3FE034653
:10184C001AB2119BDA8004AB02211846FFF7DAFEBC
:10185C0003461AB2119B1A8104AB04211846FFF7F8
:10186C00D1FE03461AB2119B5A8104AB06211846CD
:10187C00FFF7C8FE03461AB2119B1A8004AB08216D
:10188C001846FFF7BFFE03461AB2119B5A8004ABF1
:10189C000A211846FFF7B6FE03461AB2119B9A802E
:1018AC009DF81C3010939DF81D300F939DF81E3041
:1018BC000E939DF81F300D930F9B1A04109B1B0267
:1018CC0013430D9A13430C93119B0C9ADA609DF8F9
:1018DC0020300B939DF821300A930A9B1B020B9A24
:1018EC0013430993149B01331493149B159A9A4236
:1018FC008FD80398FFF736F9159B184617B05DF88B
:10190C0004FB00B58BB003900398FFF71DF9BA23C5
:10191C008DF81A30039B186805AA0DF11A010423DF
:10192C0000931346012200F0EAFB039B1B68184648
:10193C00FFF7AAF905AB00211846FFF763FE034633
:10194C00ADF81E30BDF81E30C3F30B03ADF82630D6
:10195C0005AB02211846FFF755FE0346C3F30903F6
:10196C00ADF81C309DF815308DF81B309DF81B30F0
:10197C0003F01003002B03D00398FFF7F3F823E0D8
:10198C009DF81B3003F04003002B03D04FF4006391
:10199C00ADF82630002308930EE0039B1B6804A9C6
:1019AC000222184600F0EEFB039B1B681846FFF75B
:1019BC006BF9089B01330893BDF82630089A9A42BC
:1019CC00EBDB0398FFF7CEF80BB05DF804FB0000DF
:1019DC0000B587B0019000910F210198FFF7C6FD6B
:1019EC0003461A46644B1A70042213210198FFF720
:1019FC00D1FD742212210198FFF7CCFD062305932B
:101A0C00009BDB780493009BDB7983F00103DBB252
:101A1C00002B04D000230493059B033B0593009BF0
:101A2C001B7A0393009B1B7B83F00103DBB2002B1F
:101A3C0004D000230393059B033B0593049BDBB26B
:101A4C001B01DAB2009B5B799B00DBB21343DAB269
:101A5C00009B9B791343DBB21A4610210198FFF7C8
:101A6C0099FD009B1B79002B01D0102300E0002373
:101A7C001A4615210198FFF78DFD009BDB79002B91
:101A8C0001D0E02300E000231A4618210198FFF74B
:101A9C0081FD039BDBB21B01DAB2009B9B7A5B00DE
:101AAC00DBB21343DBB21A4611210198FFF772FD2A
:101ABC00009B5B7A002B02D06FF07F0200E00022CB
:101ACC00009BDB7A1B015BB213435BB2DBB21A46A1
:101ADC0016210198FFF75EFD202219210198FFF7CE
:101AEC0059FD082209210198FFF754FD009B1B8822
:101AFC001BB2C3F30A031BB26FEA43436FEA5343AF
:101B0C001BB29BB21A4606210198FFF758FD009BA9
:101B1C001B7B002B01D0082200E00022009BDB790C
:101B2C005BB213435BB2DBB21A4608210198FFF794
:101B3C0031FD00220A210198FFF72CFDAA22422137
:101B4C000198FFF727FD059B002B08D0009B9B7885
:101B5C00DB005BB243F006035BB2DBB200E00023B8
:101B6C001A460A210198FFF715FD0198FFF7C9FEE7
:101B7C0000BF07B05DF804FB0801002010B586B06B
:101B8C000190009150220021884800F0D4FF0023DE
:101B9C00059302E1059BDB00019A13440493059A1B
:101BAC0013469B0013449B00804A13440393049BED
:101BBC00D3ED017A9FED7E7AC7EE276A16EE900A76
:101BCC0000F0BFFD03460C4644EC103B00F038FF20
:101BDC0054EC103B1846214600F08CFD0346029352
:101BEC00029B013B3F2B00F2BB8001A252F823F079
:101BFC00FD1C00000D1D00006D1D00001D1D0000D2
:101C0C006D1D00006D1D00006D1D00002D1D0000E0
:101C1C006D1D00006D1D00006D1D00006D1D000090
:101C2C006D1D00006D1D00006D1D00003D1D0000B0
:101C3C006D1D00006D1D00006D1D00006D1D000070
:101C4C006D1D00006D1D00006D1D00006D1D000060
:101C5C006D1D00006D1D00006D1D00006D1D000050
:101C6C006D1D00006D1D00006D1D00004D1D000060
:101C7C006D1D00006D1D00006D1D00006D1D000030
:101C8C006D1D00006D1D00006D1D00006D1D000020
:101C9C006D1D00006D1D00006D1D00006D1D000010
:101CAC006D1D00006D1D00006D1D00006D1D000000
:101CBC006D1D00006D1D00006D1D00006D1D0000F0
:101CCC006D1D00006D1D00006D1D00006D1D0000E0
:101CDC006D1D00006D1D00006D1D00006D1D0000D0
:101CEC006D1D00006D1D00006D1D00005D1D0000D0
:101CFC00039B4FF07E521A60039B00225A6037E020
:101D0C00039B4FF080421A60039B01225A602FE024
:101D1C00039B4FF081421A60039B02225A6027E01A
:101D2C00039B4FF082421A60039B03225A601FE010
:101D3C00039B4FF083421A60039B04225A6017E006
:101D4C00039B4FF084421A60039B05225A600FE0FC
:101D5C00039B4FF085421A60039B06225A6007E0F2
:101D6C00039B4FF086421A60039B07225A6000BF08
:101D7C00039B93ED007A049BD3ED017A27EE277A2F
:101D8C00DFED0C6AC6EE877AFCEEE77A17EE902A46
:101D9C00039B9A60059B01330593059A009B9A421D
:101DAC00FFF4F8AE00BF06B010BD00BF1401002058
:101DBC000024F4430024744B82B00190019B0D4A23
:101DCC00934201D10C4B12E0019B0C4A934201D17E
:101DDC000B4B0CE0019B0B4A934201D10A4B06E0E2
:101DEC00019B0A4A934201D1094B00E0002318469B
:101DFC0002B0704700C001401401002000100240E6
:101E0C0028010020002002403C01002000D00240AC
:101E1C005001002000B585B00190019B1B68039315
:101E2C00019B1B681846FFF7C7FF0290039B01221A
:101E3C00C3F80025039B0022C3F80425029B5A68B3
:101E4C00039BC3F80C25029B9A68039BC3F80825D7
:101E5C00039B0022C3F81425039B0222C3F8102510
:101E6C00029B0C331A46039BC3F82025039B0422C8
:101E7C00C3F82425039B0022C3F82825039B0022CA
:101E8C00C3F82C25039B01229A6000BF05B05DF8B6
:101E9C0004FB84B00190019B1B680393039B0022FD
:101EAC00C3F80421039B01225A6000BF039BD3F8A3
:101EBC000431002BFAD0039B0022C3F80025039BAE
:101ECC000022C3F80421039B0022C3F80821039BC2
:101EDC000022C3F81021039B0022C3F81821039B96
:101EEC000022C3F80825039B0022C3F81425039B8A
:101EFC000022C3F81025039B0022C3F82025039B66
:101F0C000022C3F82425039B0022C3F82825039B39
:101F1C000022C3F82C2500BF04B0704700B587B071
:101F2C0001908DED000A019B1B680593059B1B68B6
:101F3C000493059B1B681846FFF73EFF0390039B19
:101F4C009B6807EE903AB8EE677ADDED007A67EEA3
:101F5C00277AFCEEE77A17EE903AADF80A30019B3F
:101F6C005B68039A04335B001344BDF80A209A8023
:101F7C00019B9B685901019BDB6803F01F03019ACD
:101F8C0052681943049B02F5AC7243F8221000BF4F
:101F9C0007B05DF804FB84B00190019B1B680393B0
:101FAC00039B1B680293019B5A68029B02F5AC725F
:101FBC0053F82230B3F1FF3F14BF01230023DBB2EF
:101FCC00184604B0704700B587B00190019B1B68A0
:101FDC000593059B1B680493059B1B681846FFF72C
:101FEC00EBFE0390019B5B68039A04335B00134484
:101FFC0000229A80019B5A68049B02F5AC724FF048
:10200C00FF3143F8221000BF07B05DF804FB00B5A8
:10201C008FB003900B4601928DF80B3001238DF895
:10202C0020300DF10B03099301230A9300238DF843
:10203C002C30019B0C9301230D9308AB05930223C9
:10204C0006930023079305AB19460398FEF7C5FBCF
:10205C00034683F00103DBB2002B01D000230DE01B
:10206C00039B1B681846FEF76EFC034683F00103C6
:10207C00DBB2002B01D0002300E0012318460FB087
:10208C005DF804FB00B58BB001900B468DF8033066
:10209C0013468DF802309DF803308DF824309DF8EE
:1020AC0002308DF8253001238DF8183009AB0793D9
:1020BC000223089306AB0393012304930023059397
:1020CC0003AB19460198FEF788FB034683F0010326
:1020DC00DBB2002B01D000230DE0019B1B681846DE
:1020EC00FEF731FC034683F00103DBB2002B01D079
:1020FC00002300E0012318460BB05DF804FB00B58B
:10210C0091B00390029101920093029B0893019B62
:10211C00099300230A9300230B9300230C930023B1
:10212C000D93009B0E93129B0F9308AB0593022308
:10213C0006930023079305AB19460398FEF77EFD23
:10214C0000BF11B05DF804FB00B58BB001900B46DD
:10215C008DF803300DF1030306930123079300233D
:10216C0008930023099306AB0393012304930023E4
:10217C00059303AB19460198FEF760FD00BF0BB049
:10218C005DF804FB00B58DB0039002910192002321
:10219C00089300230993029B0A93019B0B9308ABB2
:1021AC000593012306930023079305AB1946039867
:1021BC00FEF744FD00BF0DB05DF804FB00B583B025
:1021CC00019000910198FEF7BFFC019B1B680099E0
:1021DC001846FEF733FD019B1B681846FEF754FDAD
:1021EC000198FEF7BFFC00BF03B05DF804FB00B51F
:1021FC008DB00390029101920093029B0893019B76
:10220C000993009B0A930E9B0B9308AB0593012338
:10221C0006930023079305AB19460398FFF7CEFFEF
:10222C0000BF0DB05DF804FB00B591B003900291B6
:10223C0001920093029B0893019B099300230A933C
:10224C0000230B9300230C9300230D93009B0E9300
:10225C00129B0F9308AB059302230693002307935D
:10226C0005AB19460398FFF7A9FF00BF11B05DF845
:10227C0004FB00B587B003900B468DF80B300DF1C5
:10228C0017020DF10B010123009313460122039851
:10229C00FFF7CAFF9DF81730184607B05DF804FB2E
:1022AC0000B585B003900B468DF80B300DF10B018A
:1022BC0000230093002301220398FFF798FF00BF2F
:1022CC0005B05DF804FB00B587B003900B468DF8A4
:1022DC000B3013468DF80A309DF80B308DF8143006
:1022EC009DF80A308DF8153005A9002300930023C2
:1022FC0002220398FFF77BFF00BF07B05DF804FBD9
:10230C0000B587B00590049103920023009300233D
:10231C00039A04990598FFF76AFF00BF07B05DF8B0
:10232C0004FB000030B58DB0134B6C461D460FCD31
:10233C000FC40FCD0FC495E8030084E803006B466F
:10234C0093E80300FEF7B5F805230A9301230B93DA
:10235C000BE00B9BDB000CAA1344303B93E803000F
:10236C00FEF7A7F80B9B01330B930B9A0A9B9A422F
:10237C00EFDB00BF0DB030BDD42B000030B591B0F9
:10238C004FF47A70FDF7C9FF2D4B06AC1D460FCDEF
:10239C000FC495E8030084E8030006AB0F930F9B72
:1023AC0004936A23059304AB0E9304AA06A8012395
:1023BC000121FEF76DF90F98FEF78AF9214A02AB5D
:1023CC0092E8030083E8030002AB93E80300FEF7F6
:1023DC0007F8012202AB93E80300FEF794F864209F
:1023EC00FDF7A5FF00238DF807300DF107031A4602
:1023FC0000210E98FEF7E8FD03468DF83730124B9E
:10240C000C939DED0C0A0E98FEF708FE03468DF812
:10241C0037306420FDF78BFF0C490E98FEF746FE13
:10242C0003468DF83730002202AB93E80300FEF729
:10243C006AF80F98FEF79AF900BF11B030BD00BFD3
:10244C00FC2B0000142C0000CDCC4C40640100206F
:10245C0010B5A4B0304A0AAB11464822184600F019
:10246C0041FB0AAB23930AAB24332293022321931F
:10247C00239B04930023059310230693229B07931D
:10248C00012308930423099304AB209304AB0C336E
:10249C001F9302231E9304AA0AA81E9B2199FEF7E0
:1024AC0058FA2398FEF7B5FA1E231D931E21209887
:1024BC00FEF7CEFE19492098FEF705FF2098FEF78F
:1024CC00F4FE2398FEF7ECFA2298FEF7A2FA144BCE
:1024DC006C460FCB07C423806B4619461F98FFF739
:1024EC0077FA0F211F98FFF741F803461A460D4B58
:1024FC001A7010211F98FFF739F803461A460A4B39
:10250C001A7064231C931C98FDF711FF2298FEF798
:10251C00C7FA00BF24B010BD1C2C000068010020BD
:10252C00642C00006C0100206D01002000B593B0FC
:10253C00002310931223119310AB93E80300FDF7C3
:10254C00B8FF3C4A0EAB92E8030083E803000EABE5
:10255C0093E80300FDF744FF00220EAB93E8030061
:10256C00FDF7D1FF344A0CAB92E8030083E803007B
:10257C000CAB93E80300FDF79CFF00230A93112397
:10258C000B930AAB93E80300FDF793FF2B4A08ABC0
:10259C0092E8030083E8030008AB93E80300FDF71F
:1025AC001FFF012208AB93E80300FDF7ACFF0023EB
:1025BC0006930223079306AB93E80300FDF710FF85
:1025CC00002206AB93E80300FDF79DFF0023049364
:1025DC001423059304AB93E80300FDF701FF0022DD
:1025EC0004AB93E80300FDF78EFF154A02AB92E8AB
:1025FC00030083E8030002AB93E80300FDF759FFE7
:10260C00104A6B4692E8030083E803006B4693E89C
:10261C000300FDF74EFFFFF785FEFFF7AFFEFFF758
:10262C0017FF094B1B680133074A136020BF40BFDB
:10263C0020BFF6E7142C0000742C00007C2C00004A
:10264C00842C00008C2C00007001002000BE00BF08
:10265C00704784B001900091019B002B1AD14FF070
:10266C0080430122C3F818254FF0804301229A6061
:10267C00002303930AE04FF08043D3F80431002B7E
:10268C0001D0012320E0039B01330393039A009BA9
:10269C009A42F0D3019B012B15D14FF080430122BC
:1026AC001A60002302930AE04FF08043D3F8003104
:1026BC00002B01D0012307E0029B01330293029A05
:1026CC00009B9A42F0D30023184604B070470000D8
:1026DC0000B5B7B0064A6B461146D822184600F032
:1026EC0001FAFFF723FF00BF37B05DF804FB00BF12
:1026FC00942C00004B005A0DA2F54072FF3A0FD4F7
:10270C00D2F11F020EDD11EA410F4FEAC12141EA5D
:10271C00505040F0004020FA02F028BF4042704771
:10272C0000207047004218BF43F0010313F5001F4F
:10273C0088BF21F0004111F0004058BF6FF00040FD
:10274C007047C0F3C751094208BF00F00040420077
:10275C004FEA40704FEA121118BF01F1605128BFC7
:10276C0081F000414FF08073D34238BF704701F1C4
:10277C00605118BF41F40021704781F0004183F093
:10278C00004383F00043F0B491EA030F00F18E8014
:10279C00841A71EB030603D212197341001BB14169
:1027AC004FF07F4646F4600616EA410F08BF62E020
:1027BC00B6EB410F98BF69E04FEA1154A4EB1357E5
:1027CC00B14341F4801116EA430F07BF00230022E6
:1027DC00B34343F48013D7F1200634D303FA06F540
:1027EC00401941F1000122FA07F5401923FA07F5C7
:1027FC0041EB050102FA06F211F4001F19D121F484
:10280C00801101EB0451F0BCB2F1004F08BF10EA8B
:10281C00500F50F1000041F100014FF07F4343F4A1
:10282C006003B3EB410F88BF7047090D0905002009
:10283C00704749085FEA30005FEA320228BF42F075
:10284C0001020134DBE7203F402F19D223FA07F5B0
:10285C00401941F10001C7F12006124218BF0122B4
:10286C0003FA06F52A43C7E711EA560F04BF002006
:10287C000021F0BC704701F000410020F0BC704713
:10288C0021F4801101EB0451F0BC7047004218BFD9
:10289C0041F00101B6EB410F04BFF0BC70474FF0A3
:1028AC00FE4141F478010020F0BC704783F00043F6
:1028BC00841A71EB030705D287F00047001BB9415E
:1028CC0012197B415FF07F4656F4600616EA430FFF
:1028DC00CAD0B6EB410F40F28C800C0DA4EB135711
:1028EC00C90241EA5051C00241F00041DB0243EA07
:1028FC005253D20243F00043D7F120065AD302FAC6
:10290C0006FCFA4003FA06F52A43FB401CEA0C0FBE
:10291C0018BF42F00102801A9941E30A6405640D64
:10292C0011F0404F2ED427D1002902BF01460020C0
:10293C00203C00295BD0B1F5803F3FBF103C09041F
:10294C0041EA10410004B1F1807F3FBF083C09020D
:10295C0041EA10610002B1F1805F3FBF043C090104
:10296C0041EA1071000111F0404F01BF023C890097
:10297C0041EA9071800009425FBF013C490041EA85
:10298C00D0714000002C11DD420521F00041C00A3D
:10299C0040EA4150C90A41EAC371460872F100424B
:1029AC0050F1000051EB0451F0BC70470020D907E6
:1029BC00F0BC7047A7F12007202F0CD2C7F12006DE
:1029CC0003FA06F5FB402A4318BF43F00103C01A73
:1029DC0061F10001A1E721F00041C00A40EA415039
:1029EC00C90A01EB0451F0BC704700200021F0BC77
:1029FC007047004218BF41F00101B6EB410F7FF464
:102A0C004EAFB6EB430F3FF44AAFF0BC70474FF4F8
:102A1C00001C1CEB410F98BF1CEB430F0CD850EA69
:102A2C00410C08BF52EA430C08D0904208BF9942AF
:102A3C000CBF012000207047002070470120704718
:102A4C002DE9F84355EC104B0022002310EE100A30
:102A5C002946FFF7DCFF80BBC5F30A51A1F2FF301A
:102A6C000028A046A9462CDB332826DC1B4EC0F1DF
:102A7C0020074FF0FF3C2CFA00F4A1F21F4106FA9C
:102A8C0007F726FA01F13C430C4326FA00F508EA55
:102A9C00040209EA050328EA040029EA05011343A4
:102AAC0004460D4609D0002871F1000305DB002215
:102ABC000B4BFFF768FE04460D4645EC104BBDE88A
:102ACC00F883002C75F100034FF0000404DB044D77
:102ADC0045EC104BBDE8F8830025EEE7FFFF0F0037
:102AEC000000F03F844640EA010313F0030F18D1B5
:102AFC008446202A0BD32DE9F007B1E8F807A0E8AB
:102B0C00F807A2F12002202AF7D2BDE8F007042A28
:102B1C0007D351F8043B40F8043BA2F10402042A09
:102B2C00F7D2002A05D011F8013B00F8013B013A1D
:102B3C00F9D1604670478446002A2DD010F0030F5F
:102B4C0004D000F8011B013A26D0F7E7C9B241EADC
:102B5C00012141EA0141202A12D3A2F120022DE9E0
:102B6C00F0030B460C460D460E460F46884689462A
:102B7C00A0E8FA03203AFBD2BDE8F00320320BD0D8
:102B8C00042A05D340F8041B043A05D0042AF9D2D0
:0C2B9C0000F8011B013AFBD160467047B5
:102BA80000000000000000000338FDD87047000056
:102BB8000100000006000000103811001244130044
:102BC8001400150016001700180019000100000075
:102BD8000B000000010000000000000000000000E1
:102BE8001A000000010000000800000000000000BA
:102BF8001B00000000300040010000000C00000035
:102C0800010000000D000000A08601000100000086
:102C18000F00000000400040000000000F0000000E
:102C2800000000000E000000000000000D00000081
:102C380000127A000300000000300240010000008A
:102C48000300000001000000020000000100000075
:102C58000500000000127A000300000020000101B6
:102C68000100030001010100000000000100000054
:102C78000A000000010000000E0000000100000032
:102C880006000000010000000100000059260000B5
:102C9800B50C0000C3030000ED030000170400009A
:102CA800410400006B04000095040000BF0400000C
:102CB800E904000013050000570500009D06000008
:102CC800DD06000079070000BD070000E7070000E7
:102CD800530900005F0900001F0A0000AD0A000048
:102CE8002B0B0000550B0000710B00008D0B000032
:102CF800490C0000950C0000D50F0000FB0F0000E8
:102D080029100000B910000079150000A115000075
:102D1800DD1900000F1900004D160000D117000042
:102D28005D120000B7120000D31200006D130000FE
:102D3800451300000B14000089130000271400003D
:102D4800D9140000891B0000211E00009F1E0000EE
:102D5800291F0000A31F0000D31F00003925000011
:042D68005F260000E2
:042D6C000090D00300
:04000003000002B93E
:00000001FF
